:020000040800F2
:1000000000000220B1610008B9100008BB10000810
:10001000BD100008BF100008C1100008000000005B
:10002000000000000000000000000000C3100008F5
:10003000C510000800000000C7100008C910000823
:100040000162000801620008016200080162000804
:1000500001620008016200080162000801620008F4
:1000600001620008016200080162000801620008E4
:1000700001620008016200080162000801620008D4
:1000800001620008016200080162000801620008C4
:1000900001620008016200080162000801620008B4
:1000A00001620008016200080162000801620008A4
:1000B0000162000801620008016200080162000894
:1000C0000162000801620008016200080162000884
:1000D000016200080162000801620008D1100008F6
:1000E0000162000801620008016200080162000864
:1000F0000162000801620008016200080162000854
:100100000162000801620008016200080162000843
:100110000162000801620008016200080162000833
:100120000162000801620008016200080162000823
:100130000162000801620008016200080162000813
:10014000016200080162000801620008E110000875
:1001500001620008016200080162000801620008F3
:1001600001620008016200080162000801620008E3
:10017000016200080162000801620008000000003E
:080180000162000801620008A1
:1001C000024B0146186800F02FB800BF0000002065
:1001D000024B0146186800F0DFB900BF00000020A4
:1001E00070B5104E336805460C46B3B1214628461B
:1001F00000F0F8F8431C0CD0C41C24F00304A04207
:1002000005D0211A284600F0EDF8013001D0204633
:1002100070BD4FF0FF34204670BD194600F0E2F883
:100220003060E3E77C0000202DE9F843CD1C25F089
:10023000030508350C2D38BF0C25002D064618DBAC
:10024000A94216D8DFF8DC8000F06EF8D8F8042058
:10025000A2B1144603E0636822467BB11C462368C2
:100260005B1BF8D40B2B1FD89442636854D05360A7
:100270000CE00C2333600020BDE8F88329463046AB
:10028000FFF7AEFF431C044619D00560304600F06E
:1002900051F804F10B00231D20F00700C21A1CBF07
:1002A0001B1AA350BDE8F88361199442256014BF5E
:1002B0005160C8F80410635163684B60E6E7D8F8F2
:1002C00004701FB33C467F68002FFBD1236839467A
:1002D000304604EB030900F085F8814516D1236808
:1002E000ED1A29463046FFF77BFF01300ED0236818
:1002F000D8F804202B442360536883B1A34203D071
:100300001A465B689C42FBD10023B0E70C233360A4
:10031000304600F00FF8AEE7C8F80430B6E7C8F88A
:100320000470B3E77C000020014800F0A5B800BFCE
:10033000D4010020014800F0A7B800BFD40100207C
:10034000830730B547D0541E002A3ED0CAB20346B8
:1003500001E0013C39D303F8012B9D07F9D1032CAF
:100360002CD9CDB205EB05250F2C05EB054535D96C
:10037000A4F1100222F00F0C03F1100EE6444FEA34
:10038000121C1A46C2E90055C2E9025510327245E4
:10039000F8D10CF1010214F00C0F03EB021204F07F
:1003A0000F0C13D0ACF1040323F003030433134404
:1003B00042F8045B9342FBD10CF003042CB1C9B2A8
:1003C0001C4403F8011BA342FBD130BD6446134615
:1003D000002CF4D1F9E703461446C0E71A46A446B8
:1003E000E0E700BF38B5074D0022044608462A6002
:1003F00005F0BAFE431C00D038BD2B68002BFBD0A3
:10040000236038BDC0010020014B1868704700BF51
:100410000000002070B50F4B0F4DAB42A3EB05065B
:1004200007D0B610002455F8043B01349847A64283
:10043000F9D806F037F8094D094B5E1BAB424FEA7D
:10044000A60606D0002455F8043B01349847A6427E
:10045000F9D870BD346500083465000834650008BB
:1004600038650008704700BF704700BF704700BF85
:10047000704700BF704700BF704700BF0120704742
:1004800001207047704700BF704700BF00000000A8
:10049000000000000000000000000000000000005C
:1004A000000000000000000000000000000000004C
:1004B000000000000000000000000000000000003C
:1004C00030B490F800F020F007016FF0000C10F04D
:1004D000070491F820F040F048804FF000046FF0DE
:1004E0000700D1E9002391F840F000F1080082FAFA
:1004F0004CF2A4FA8CF283FA4CF3A2FA8CF34BBBC5
:10050000D1E9022382FA4CF200F10800A4FA8CF23D
:1005100083FA4CF3A2FA8CF3E3B9D1E9042382FA0B
:100520004CF200F10800A4FA8CF283FA4CF3A2FA20
:100530008CF37BB9D1E9062301F1200182FA4CF258
:1005400000F10800A4FA8CF283FA4CF3A2FA8CF3BF
:10055000002BC6D0002A04BF04301A4612BAB2FAE1
:1005600082F200EBD20030BC7047D1E9002304F0E6
:100570000305C4F100004FEAC50514F0040F91F81B
:1005800040F00CFA05F562EA05021CBF63EA0503B8
:1005900062464FF00004AAE7002950D038B551F860
:1005A000043C0C1F002BB8BFE4180546FFF7BCFE47
:1005B000274A13682BB1A3420CD9216860188342E3
:1005C0002CD0636028461460BDE83840FFF7B2BE07
:1005D000A3420FD81A465B68002BF9D11168501856
:1005E000844217D02CD3636054602846BDE838405D
:1005F000FFF7A0BE11685018A04214D020D821687F
:1006000060188342EFD118685B680844C4E90003AE
:100610005460EAE723680B441360E6E718685B68F8
:1006200008442060CDE720680144501883421160DF
:10063000DBD1D3E900040144C2E90014D5E77047D7
:100640000C232B602846BDE83840FFF773BE00BF7F
:100650008000002053B94AB9002908BF00281CBFF8
:100660004FF0FF314FF0FF3000F00CB8ADF1080C47
:100670006DE904CE05F0C5FDDDF804E0DDE90223F7
:1006800004B07047704700BF10B5054C237833B9EC
:10069000044B13B10448AFF300800123237010BD55
:1006A000E101002000000000A464000808B5034B2D
:1006B0001BB103490348AFF3008008BD00000000F0
:1006C000E4010020A464000803464209C0F3C1000D
:1006D00003F0070180EA5313994211D102B9A0B186
:1006E000012A03D0072A08D00520704702280CD021
:1006F00003280AD0012805D1704728B1052070478A
:10070000052070470520704704207047074AD2F83B
:10071000FC3043F08073C2F8FC30054B00225A6075
:100720001A6842F001021A60704700BF00ED00E055
:10073000001000E0034B1868034BA3FB0030800C53
:10074000704700BF5800002083DE1B43884203D35C
:10075000904203D900207047002070470120704765
:10076000044BFF221A700023034A1370034A1360DC
:10077000704700BF5000002000020020FC01002054
:1007800038B1042807D0431EDBB2022B05D9002064
:100790007047032070470220704702207047000016
:1007A00010B5074C01224FF40041204603F0F5F943
:1007B00000224FF4E041204603F0EFF910BD00BFE6
:1007C000000C024010B5074C01224FF48051204626
:1007D00003F0E3F900224FF46041204603F0DDF915
:1007E00010BD00BF000C024010B5074C01224FF4B1
:1007F0000051204603F0D1F900224FF45041204629
:1008000003F0CBF910BD00BF000C024010B5074C3F
:1008100001224FF48041204603F0BFF900224FF43B
:100820003041204603F0B9F910BD00BF000C024072
:1008300010B5074C01224FF44041204603F0ADF9BA
:1008400000224FF44051204603F0A7F910BD00BF2D
:10085000000C024010B5074C01224FF460412046C5
:1008600003F09BF900224FF48051204603F095F9E4
:1008700010BD00BF000C024008B5042813D8DFE803
:1008800000F00306090C0F00FFF79CFF08BDFFF7FF
:10089000ABFFFBE7FFF7BAFFF8E7FFF7C9FFF5E7A4
:1008A000FFF7D8FFF2E7FFF77BFFEFE72DE9F0470F
:1008B0008CB000240794089409940A940B94019432
:1008C0004D4B1A6B42F010021A631A6B02F01002C1
:1008D0000192019A02941A6B42F004021A631A6B95
:1008E00002F004020292029A03941A6B42F0800210
:1008F0001A631A6B02F080020392039A04941A6B33
:1009000042F001021A631A6B02F001020492049A87
:1009100005941A6B42F002021A631A6B02F002028B
:100920000592059A06941A6B42F008021A631B6B33
:1009300003F008030693069B304E224608213046FA
:1009400003F02BF9DFF8C08001221146404603F086
:1009500024F92B4F22464FF21001384603F01DF9BF
:100960004FF00809CDF81C900125089509940A94C8
:1009700007A9304603F014F80795089509940A94DE
:1009800007A9404603F00CF8CDF81C904FF002097F
:10099000CDF8209009940A944FF0050ACDF82CA0C8
:1009A00007A9404602F0FCFFCDF81CA0089409946A
:1009B00007A9144802F0F4FF4FF2100307930895BB
:1009C00009940A9407A9384602F0EAFF2023079306
:1009D0000894099407A9384602F0E2FFCDF81C906C
:1009E0004FF490130893099407A9304602F0D8FFFA
:1009F0000CB0BDE8F08700BF003802400010024094
:100A0000000C0240000402400008024000B585B01E
:100A10007E238DF80430FF238DF8053006238DF8F2
:100A200006308DF8070000238DF808300B0A8DF88A
:100A30000930CBB28DF80A3000F2051000EB11201E
:100A400018444042C0F307238DF80B308DF80C009A
:100A5000EF238DF80D3064230A2201A9044803F026
:100A600076FF642003F0CAF905B05DF804FB00BF0F
:100A70004C02002008B502210920FFF7C7FF08BD7E
:100A800008B501461E2800D91E210620FFF7BEFF2B
:100A900008BD08B500211620FFF7B8FF08BD08B54E
:100AA00001461220FFF7B2FF08BD0000052820D044
:100AB00008B501280FD90F4B1B7883420AD00D4B84
:100AC000187003280DD004280FD0022802D101206D
:100AD000FFF7E5FF08BDFFF7DCFF064B00221A70A9
:100AE000F8E70220FFF7DBFFF4E70320FFF7D7FF6B
:100AF000F0E770470102002010B50446FFF7E0FC64
:100B0000642382B22146024803F021FF10BD00BFDA
:100B10000402002008B5042818D8DFE800F0030715
:100B20000B0F13000B48FFF7E7FF08BD0A48FFF75C
:100B3000E3FFFAE70948FFF7DFFFF6E70848FFF7AA
:100B4000DBFFF2E70748FFF7D7FFEEE70648FFF7BE
:100B5000D3FFEAE7BC640008C4640008D06400085E
:100B6000DC640008E8640008F064000808B503F0DD
:100B70003FF9064B1B782BB1054B1B68C01AB0F52B
:100B80002F7F00D808BDFFF7EBFDFBE70002002038
:100B9000FC01002070B50546FFF796FD052823D01F
:100BA0000446FFF7E3FF2046FFF7EAFD0646F0B1F3
:100BB0001A4B1B78AB421DD0184B1D70184B0122ED
:100BC0001A7003F015F9174B1860154B1B78B342D8
:100BD0000CD3154B1B78AB4214D1114B1B78B3428D
:100BE00004D90F4B1E7001E0FFF7BAFD70BDFFF78F
:100BF000B7FDFBE70A4B1B78FF2BE2D00133084A15
:100C00001370DEE7084B1D702046FFF735FE2046C7
:100C1000FFF74CFF2046FFF77DFFDEE75000002086
:100C200000020020FC0100205100002070B50446A5
:100C30000D460A4B5E68FFF77DFD00FB05F50121BF
:100C4000074802F0A3FFA04206D0044B5B689B1B41
:100C5000AB42F4D3002000E0012070BD001000E0A2
:100C6000000402402DE9F04105460E461746FFF705
:100C700061FD00FB06F60121164802F087FFA8423D
:100C800022D1154BD3F804800121124802F07EFFD7
:100C9000A8420DD1104B5C68A4EB0804A642F3D81F
:100CA00027B1FFF747FDB4FBF0F43C6000200CE0F7
:100CB000094B5B68A3EB08084FB1FFF73BFDB8FB9E
:100CC000F0F03860012000E00020BDE8F081012054
:100CD000FBE700BF00040240001000E02DE9F041F6
:100CE00082B000230193002800F096800646564B00
:100CF0005D68FFF71FFD554C00FB04F4524B5B6829
:100D00005B1BA34219D24FF4FA610020FFF78EFF5C
:100D10000028F3D001AA42F6E0610020FFF7A2FF0D
:100D200000287BD042F6F82241F64C510198FFF79B
:100D30000DFD0028E2D0012500E000251DB9284660
:100D400002B0BDE8F08101AA42F6E0610120FFF7A0
:100D500089FF002864D041F2707240F6B8310198E2
:100D6000FFF7F4FC00285DD007244FF0000801E0F5
:100D7000013C64B2002C37DB40F6B8310020FFF7AD
:100D800055FF002850D001AA42F6E0610020FFF78D
:100D900069FF00284AD04FF461724FF496710198B0
:100DA000FFF7D4FC002843D001AA42F6E0610120FD
:100DB000FFF758FF00283DD0019F4FF47A724FF49F
:100DC00096713846FFF7C2FC0028D1D140F6C41214
:100DD00040F24C413846FFF7B9FC68B30123A34009
:100DE000DBB243EA0808C3E740F6B8310020FFF75A
:100DF0001DFF18B301AA42F6E0610020FFF732FFA1
:100E0000F0B14FF47A724FF496710198FFF79EFC9F
:100E1000C0B186F8008092E7022590E702258EE7B0
:100E200002258CE702258AE7022588E7022586E766
:100E3000022584E7022582E7022580E702257EE776
:100E400002257CE702257AE7001000E0F049020065
:100E500072B6FEE708B50A480A4B03600A4B4360C6
:100E600000238360C3604FF4804202614361836169
:100E7000C361036202F0D6FF00B908BDFFF7E8FFC7
:100E80003403002000540040A086010008B50A4841
:100E90000A4B03604FF40072426000238360C3601A
:100EA0000261074A42618361C361036203F098F8FB
:100EB00000B908BDFFF7CCFFEC020020003C004069
:100EC0000077010008B50D480D4B03604FF48273A5
:100ED000436000238360C360036143614FF4007289
:100EE0008261C3610362436283620A23C36203F0C7
:100EF00075FB00B908BDFFF7ABFF00BF94020020EF
:100F00000030014008B50A480A4B03604FF41653FD
:100F1000436000238360C36003610C2242618361EC
:100F2000C36103F0E4FC00B908BDFFF791FF00BF07
:100F30004C0200200044004008B50A480A4B0360F8
:100F40004FF4E133436000238360C36003610C22EC
:100F500042618361C36103F0CAFC00B908BDFFF7B9
:100F600077FF00BF040200200048004000B595B0A4
:100F70003022002108A8FFF7E3F90023039304932C
:100F80000593069307930193214A116C41F0805118
:100F90001164126C02F080520192019A02931D4B6F
:100FA0001A6842F480421A601B6803F4804302937B
:100FB000029B012308934FF48033099302230E937D
:100FC0004FF480020F92082210924FF4A8721192EF
:100FD00012930723139308A802F0C0F898B90F23BF
:100FE000039302230493002305934FF4A053069325
:100FF0004FF480530793052103A802F019FB20B991
:1010000015B05DF804FBFFF723FFFFF721FF00BFDA
:10101000003802400070004010B582B000238DF807
:10102000073002F0BFFEFFF7A1FFFFF73FFCFFF71D
:1010300011FFFFF72BFFFFF745FF00F0C7F9FFF7A0
:1010400061FFFFF779FFFFF761FB194C2046FFF7BF
:1010500053FD184BFF221A70FFF782FBFFF7A0FB2E
:1010600040F6B83002F0CAFEFFF704FD4FF4FA7004
:1010700002F0C4FE0F20FFF703FD4FF4FA7002F0F8
:10108000BDFE2046FFF738FD03E09DF80700FFF79F
:1010900081FD00F0BBF9FFF769FD0DF10700FFF7D7
:1010A0001DFE0128F1D00228F3D1FFF759FBF0E72C
:1010B000FC64000851000020FEE7FEE7FEE7FEE7C3
:1010C000FEE770477047704708B502F085FE08BD1F
:1010D00008B5024803F02CFD08BD00BF0402002043
:1010E00008B5024801F0CCF908BD00BF6407002034
:1010F00000B583B0002100910C4B5A6C42F4804241
:101100005A645A6C02F480420092009A01911A6C5F
:1011100042F080521A641B6C03F080530193019BD0
:10112000072002F0DFFD03B05DF804FB0038024049
:1011300030B589B000230393049305930693079376
:101140000268144B9A4201D009B030BD00250195C8
:10115000114C236B43F002032363236B03F0020360
:101160000193019B4FF41073039312230493012303
:1011700005930423079303A9084802F011FC029584
:10118000236C43F400132364236C03F400130293D1
:10119000029BD9E70054004000380240000402409E
:1011A00070B58CB000230793089309930A930B93AF
:1011B00003930493059306930268254B9A4201D04A
:1011C0000CB070BD01230393C02304930223059345
:1011D00003A802F003FB002837D1002400941D4B24
:1011E0001A6C42F400421A641A6C02F40042009233
:1011F000009A01941A6B42F001021A631A6B02F012
:1012000001020192019A02941A6B42F004021A63DD
:101210001B6B03F004030293029B10230793022627
:10122000089609940A9406250B9507A90A4802F026
:10123000B7FB4FF4A4530793089609940A940B95AF
:1012400007A9064802F0ACFBBAE7FFF701FEC4E7C6
:10125000003C00400038024000000240000802400C
:1012600000B589B000230393049305930693079375
:101270000268144B9A4202D009B05DF804FB0021C9
:10128000019103F584335A6C42F480525A645A6CCB
:1012900002F480520192019A02911A6B42F001020B
:1012A0001A631B6B03F001030293029BE023039379
:1012B000022304930523079303A9034802F070FB5C
:1012C000DAE700BF003001400000024010B58AB0EC
:1012D00000230593069307930893099303682B4A09
:1012E000934204D02A4A934224D00AB010BD002170
:1012F0000191284B1A6C42F400321A641A6C02F401
:1013000000320192019A02911A6B42F001021A63B3
:101310001B6B03F001030293029B0C230593022332
:101320000693032308930723099305A91A4802F09B
:1013300037FBDAE700240394164B1A6C42F4802240
:101340001A641A6C02F480220392039A04941A6BB2
:1013500042F002021A631B6B03F002030493049B26
:101360004FF4406305930223069303230893072356
:10137000099305A9094802F013FB224621462720BC
:1013800002F0C2FC272002F0CFFCAEE70044004090
:1013900000480040003802400000024000040240C3
:1013A00004290CD0052902D0022904D07047064B2D
:1013B00003221A707047044B02221A707047024BC6
:1013C00001221A70704700BF8803002008B501226F
:1013D0000B490C4803F094FE48B90B49094803F047
:1013E000AEFE38B9074803F0EFFE30B908BDFFF78D
:1013F0002FFDF2E7FFF72CFDF4E7FFF729FDF5E7F6
:10140000A11300088C0300205C00002008B50248EE
:1014100003F0E4FE08BD00BF8C03002070B588B067
:101420000023039304930593069307930368B3F192
:10143000A04F01D008B070BD002501951A4C236B58
:1014400043F001032363236B03F001030193019B2A
:101450004FF400730393154E03A9304602F0A0FA2F
:101460004FF4E053039302230493059506950A2352
:10147000079303A9304602F093FA636B43F08003AD
:1014800063630295636C43F480436364636C03F4A9
:1014900080430293029B2A462946432002F034FCF3
:1014A000432002F041FCC5E7003802400000024042
:1014B00008B5D0F8DC0303F0DCFF08BD08B5D0F8B0
:1014C000DC0303F0EAFF08BD08B5D0F8DC0303F045
:1014D000EEFF08BD704708B5D0F8DC0303F0D2FF7B
:1014E00008BD08B5D0F8DC0303F0D0FF08BD00004C
:1014F00090F8CC33012B01D00020704710B5044682
:101500000F48C0F8DC43C4F8D0034FF0A043036099
:10151000082343710123C3710023837102224272A5
:10152000837200F003F940B9054801F090F80146D4
:10153000204603F09BFF002010BDFFF789FCF3E776
:101540006407002008B5D0F8D00301F085F8012821
:1015500004D0022804D020B1012002E0012000E0E4
:10156000022008BD08B5D0F8D00301F06AF808BD24
:101570000020704708B5D0F8D00301F05BF808BD33
:1015800008B590F8CC33012B04D0C82002F036FC0B
:10159000002008BD084600F067F8F6E7D0F8D03321
:1015A000C1EB011003EB8000C07D38B1C1EB01112C
:1015B00003EB810383F83C2000207047C1EB01114D
:1015C00003EB810383F83D20F6E708B502F016FC33
:1015D00008BD022805D8DFE800F00504020001205C
:1015E00070470220704708B5D0F8D00300F0F6FF2E
:1015F000FFF7EFFF08BD08B5D0F8D00301F003F8FE
:10160000FFF7E7FF08BD08B5D0F8D00301F00DF8EB
:10161000FFF7DFFF08BD10B584B0D0F8D003BDF8E8
:10162000204002949DF81C4001949DF818400094BD
:1016300001F023F8FFF7CDFF04B010BD10B584B062
:10164000D0F8D0039DF824400394BDF820400294C4
:10165000079C01949DF81840009400F0AEF8FFF745
:10166000B8FF04B010BD000008B5024600B1012269
:101670000121024802F091FA08BD00BF00080240B3
:10168000F8B50668346A04F00F07C4F34343C4F3A3
:101690000A14022B00D0F8BD0546002CFBD0C7EB86
:1016A000071300EB8303D96A0029F4D0C7EB0713B3
:1016B00000EB83039A6B22445B6B9A4207D9C7EB1A
:1016C000071700EB8705042385F84C30E3E7224633
:1016D000304601F017F9C7EB071305EB8303DA6A0D
:1016E0002244DA629A6B22449A6306EB4716D6F8D4
:1016F00010251B8DA342CED10B4B1340002BCAD01B
:10170000D6F8003523F0804343F00043C6F8003597
:10171000C7EB071305EB830393F83C2082F001022B
:1017200083F83C20B7E700BF0000F81F002842D034
:1017300030B583B00446056890F8D533BBB10323B8
:1017400084F8D533B5F1A04F16D0206801F075F8B4
:10175000237C8DF80030231D0ECB206801F01EF88D
:1017600068B1022384F8D533012003B030BD80F87E
:10177000D433FFF753FEE2E70023A371E5E701212D
:10178000206801F0F3F820B1022384F8D53301205A
:10179000EBE7237C8DF80030231D0ECB206801F091
:1017A00017F918B9012384F8D533DEE7022384F84A
:1017B000D5330120D9E70120704738B59DF8104096
:1017C000BDF81850C1EB011C00EB8C0C8CF81720F5
:1017D0008CF8263094B9C1EB011C00EB8C0C4FF057
:1017E000030E8CF82AE09DF81CE08CF819E0032B1E
:1017F00000F2B180DFE803F00BA84C7AC1EB011CCA
:1018000000EB8C0C4FF0020E8CF82AE0EFE7012C75
:1018100040F0A180F2B935B9C1EB011300EB8303AD
:10182000012283F83D20C1EB011300EB830393F801
:101830003D303BB9C1EB011300EB8303002283F879
:101840002A2088E0C1EB011300EB8303022283F816
:101850002A2080E0C1EB011300EB83039B7E012B68
:1018600079D1C1EB011300EB830393F83C303BB912
:10187000C1EB011300EB8303002283F82A206AE006
:10188000C1EB011300EB8303022283F82A2062E0FC
:10189000AAB9C1EB011300EB830393F83D3033B9D0
:1018A000C1EB011300EB830383F82A2053E0C1EB63
:1018B000011300EB8303022283F82A204BE0C1EBE3
:1018C000011300EB830393F83C303BB9C1EB0113E8
:1018D00000EB8303002283F82A203CE0C1EB0113D4
:1018E00000EB8303022283F82A2034E0AAB9C1EB7B
:1018F000011300EB830393F83D3033B9C1EB0113BF
:1019000000EB830383F82A2025E0C1EB011300EBF1
:101910008303022283F82A201DE0C1EB011300EBB0
:10192000830393F83C303BB9C1EB011300EB830315
:10193000002283F82A200EE0C1EB011300EB8303A1
:10194000022283F82A2006E0C1EB011300EB830397
:10195000002283F82A20C1EB011300EB8303059AD0
:10196000DA625D63002283F84C209A63597583F82C
:101970004D20C1EB011189001031014482790431FD
:10198000006801F047FA38BD30B583B004460568F9
:10199000D5F840340193D5F840340093009B23F0F0
:1019A0002E030093019B13F0020F07D0019B13F04D
:1019B000010F25D1009B43F002030093019B13F01C
:1019C000080F10D0009B43F008030093019B13F015
:1019D000040F2DD0637A022B15D0E379012B22D08E
:1019E0002046FFF778FD019B13F0200F03D0009BEA
:1019F00043F020030093009BC5F8403403B030BD92
:101A0000FFF75CFDD6E7019B03F4C023B3F5802FFD
:101A100004D00121206801F05BF8E1E70221206891
:101A200001F056F8DCE74EF66022C5F80424D7E74B
:101A30002046FFF756FDD6E7F8B505460C46066882
:101A4000304600F086FF10F0040F21D006EB44135F
:101A50000422C3F80825C4EB041305EB8303072213
:101A600083F84D202146286801F043F92146286873
:101A700000F06FFF10F4007F6CD02146286801F061
:101A800038F906EB44164FF40073C6F80835F8BD74
:101A90002146286800F05DFF10F4807F11D006EB2E
:101AA00044134FF48072C3F80825C4EB041305EB0C
:101AB0008303082283F84D202146286801F019F994
:101AC000D4E72146286800F044FF10F0080F10D03A
:101AD00006EB44130822C3F80825C4EB041305EBF6
:101AE0008303062283F84D202146286801F001F97E
:101AF000BCE72146286800F02CFF10F4806F11D05D
:101B000006EB44134FF48062C3F80825C4EB0413BA
:101B100005EB8303092283F84D202146286801F054
:101B2000E8F8A3E72146286800F013FF10F0800FC3
:101B30009CD006EB44138022C3F80825C4EB0413A1
:101B400005EB8303072283F84D202146286801F026
:101B5000D0F88BE72146286800F0FBFE10F0010F5B
:101B60007CD006EB441606F5A0672023BB60C4EBCF
:101B7000041305EB8303DB7E012B1DD0AB794BB146
:101B8000C4EB041305EB83031A6B3969C1F312012B
:101B9000521A9A63C4EB041305EB8303012283F802
:101BA0004D2000215964BA6093F82630032B14D8D5
:101BB000DFE803F00D250D25C4EB041305EB8303CB
:101BC0000022DA767B6823F480337B60D6E72146F7
:101BD000286801F08EF81023BB60AB79012B20D070
:101BE000C4EB041305EB830393F83C30C4EB0414FB
:101BF00005EB840483F0010384F83C3047E7D6F812
:101C0000003543F00053C6F80035C4EB041305EB70
:101C10008303012283F84C2021462846FFF75AFC13
:101C2000DBE7C4EB041205EB8202936B128D1344C5
:101C3000013BB3FBF2F313F0010F3FF428AFC4EB09
:101C4000041305EB830393F83C30C4EB041405EB59
:101C5000840483F0010384F83C3018E721462868A7
:101C600000F077FE10F0200F1ED006EB4416202364
:101C7000C6F80835C4EB041305EB83039B7E012BE8
:101C80007FF405AFC4EB041305EB83030122DA767E
:101C9000C4EB041305EB8303032283F84D20214694
:101CA000286801F026F8F2E62146286800F051FE87
:101CB00010F0020F00F0228106EB441606F5A06238
:101CC00002239360C4EB041305EB830393F84D30B8
:101CD000013B082B1ED801A151F823F0011D00087B
:101CE0008F1A0008591E0008B11E0008B91D00080F
:101CF0002B1D0008411D0008E11E0008411D0008C1
:101D0000C4EB041305EB8303022283F84D20012268
:101D100083F84C20C4EB041305EB830393F84C20A9
:101D200021462846FFF7D6FBB1E6C4EB041305EBCA
:101D30008303022283F84D20052283F84C20E9E733
:101D4000C4EB041305EB8303022183F84D10596C97
:101D50000131596402291AD9C4EB041305EB83033A
:101D6000002159649B7E012B07D0C4EB041305EBC3
:101D70008303042283F84C20CCE73C2303FB045369
:101D8000D9761977536823F480335360EDE7C4EBB9
:101D9000041305EB8303022283F84C2093F82630CA
:101DA0000BB19342B6D1D6F8003523F0804343F00F
:101DB0000043C6F80035ADE7C4EB041305EB83031D
:101DC000022183F84D10DB7E012BA3D1C4EB041359
:101DD00005EB830393F82630032B17D03C2303FB3A
:101DE0000453022283F84C20C4EB041305EB830355
:101DF00093F826300BB1022B8CD1D6F8003523F0A6
:101E0000804343F00043C6F8003583E73C2101FBE3
:101E100004518B6C01338B64022B16D90B460021C5
:101E20009964D9765B6C022B04D83C2303FB0453E2
:101E300001211977536823F4803353603C2303FB5B
:101E40000453042283F84C20CEE73C2303FB0453C5
:101E5000022283F84C20C7E7C4EB041305EB83038D
:101E6000022183F84D10DB7E012B7FF453AFC4EBCE
:101E7000041305EB830383F84C10516841F480315F
:101E80005160D16841F04001D160D16821F020015A
:101E9000D16093F8263013B1022B7FF43BAFD6F814
:101EA000003523F0804343F00043C6F8003531E7A6
:101EB000C4EB041305EB8303022283F84D2083F85F
:101EC0004C2093F8263013B193427FF423AFD6F819
:101ED000003523F0804343F00043C6F8003519E78E
:101EE000C4EB041305EB8303022283F84D205A6CE4
:101EF00001325A64042283F84C200BE721462868FB
:101F000000F027FD10F0400F18D006EB44134022DC
:101F1000C3F80825C4EB041305EB8303052283F8FB
:101F20004D209B7E2BB9C4EB041305EB83030022E9
:101F30005A642146286800F0DCFEA8E5214628689E
:101F400000F007FD10F0100F3FF4A1ADC4EB041337
:101F500005EB830393F82630032B28D00BB1022B1B
:101F600018D1C4EB041305EB830300225A64AB7948
:101F700033B1C4EB041305EB8303DB7E012B09D1E2
:101F80003C2303FB0453042283F84D202146286898
:101F900000F0AFFEC4EB041305EB8303DB7E012BE3
:101FA00012D006EB44131022C3F808256FE53C233A
:101FB00003FB045300225A64042283F84D20214677
:101FC000286800F096FEE5E7C4EB041305EB8305F3
:101FD0000023EB7606EB4413D3F8042522F4803279
:101FE000C3F80425D3F80C2542F02002C3F80C25D1
:101FF000D7E700BF70B505460C460668304600F0CE
:10200000A8FC10F0040F10D006EB44160423C6F809
:102010000835C4EB041305EB8303072283F84D2036
:102020002146286800F065FE70BD2146286800F052
:1020300090FC10F0200F4AD006EB44162023C6F87F
:102040000835C4EB041305EB83035B7E012B2DD015
:10205000C4EB041305EB83039B7E012BE4D1C4EB9B
:10206000041305EB8303DB7E002BDDD1C4EB0413EB
:1020700005EB830393F82630012B05D0C4EB041342
:1020800005EB83030122DA762601C4EB041305EB8A
:102090008303032283F84D202146286800F029FE9F
:1020A000361B05EB860600237364BDE7C4EB0413FF
:1020B00005EB830300225A76022283F84C20032288
:1020C00083F84D202146286800F013FEC0E7214622
:1020D000286800F03EFC10F4007F0AD006EB44169E
:1020E0004FF40073C6F808352146286800F001FE59
:1020F0009AE72146286800F02CFC10F0010F3BD035
:10210000C4EB041305EB830300225A6421462868BC
:1021100000F01FFC10F0400F0AD0C4EB041305EBD5
:10212000830301225A7606EB44134022C3F80825A4
:10213000C4EB041305EB8303DB7E6BB1C4EB041328
:1021400005EB83030022DA7606EB4413D3F804256B
:1021500022F48032C3F8042506EB44160122C6F8A7
:102160000825C4EB041305EB830383F84D202146B7
:10217000286800F0BEFD57E72146286800F0E9FB1B
:1021800010F0400F1ED0C4EB041305EB83030522AF
:1021900083F84D209B7E2BB9C4EB041305EB83031E
:1021A00001225A76C4EB041305EB830300225A6420
:1021B0002146286800F09DFD06EB44164023C6F832
:1021C000083531E72146286800F0C3FB10F0080FFE
:1021D00010D006EB44130822C3F80825C4EB0413FF
:1021E00005EB8303062283F84D202146286800F082
:1021F00080FD19E72146286800F0ABFB10F0100FB6
:1022000020D0C4EB041305EB830300225A6404229C
:1022100083F84D205B7E5BB9C4EB041305EB8303AD
:102220001B7E2BB9C4EB041305EB830301225A7602
:102230002146286800F05DFD06EB44131022C3F828
:102240000825F1E62146286800F083FB10F0800F96
:1022500038D0AB79F3B1C4EB041205EB8202536CB6
:1022600001335364022B20D83C2303FB0453022286
:1022700083F84C2006EB4412D2F8003523F080435B
:1022800043F00043C2F8003506EB44138022C3F844
:102290000825C9E63C2303FB0453072283F84D209D
:1022A0002146286800F025FDEEE73C2303FB04539C
:1022B00000225A64042283F84C2021462846FFF766
:1022C00009F9E1E72146286800F043FB10F4806F2C
:1022D00010D03C2303FB0453092283F84D202146F0
:1022E000286800F006FD06EB44134FF48062C3F843
:1022F000082599E62146286800F02BFB10F0020F14
:102300003FF492AE06EB441606F5A06202239360FA
:102310003C2303FB045393F84D30013B082B3FF65D
:1023200083AE01A151F823F04D23000829200008B5
:10233000BB230008D9230008032400082724000831
:102340003B240008292000083B2400083C2303FB11
:102350000453022283F84D20012283F84C2093F885
:102360002630023BDBB2934253D8A97941B93C23D2
:1023700003FB045393F83D2082F0010283F83D20D3
:10238000012946D13C2303FB04535B6B002B40D057
:102390003C2202FB0452128D1344013BB3FBF2F3C7
:1023A00013F0010F35D03C2303FB045393F83D2079
:1023B00082F0010283F83D202BE03C2303FB045311
:1023C000022283F84D20DB7E012B22D13C2303FB2C
:1023D000045383F84C201CE03C2303FB04530221EC
:1023E00083F84D1083F84C10DB7E012B11D13C2378
:1023F00003FB04530021D976536823F480335360E0
:1024000007E03C2303FB0453022283F84D2083F8AA
:102410004C203C2303FB045393F84C2021462846D0
:10242000FFF758F800E63C2303FB0453022283F82D
:102430004D20052283F84C20EBE73C2303FB04539B
:10244000022283F84D205A6C01325A64022A08D9BC
:102450003C2303FB045300225A64042283F84C20DB
:10246000D7E73C2303FB0453022283F84C20D6F821
:10247000003523F0804343F00043C6F80035C8E739
:10248000F8B504460568284600F06CFA012800D02B
:10249000F8BD206800F059FA0028F9D0206800F053
:1024A00054FA10F4001F03D023684FF400125A614D
:1024B000206800F04AFA10F4801F03D023684FF41C
:1024C00080125A61206800F040FA10F0806F03D04B
:1024D00023684FF080625A61206800F036FA10F0ED
:1024E000020F02D0236802225A61206800F02DFA00
:1024F00010F0005F08D023684FF000525A61D5F801
:10250000403413F0010F25D0206800F01EFA10F0BF
:10251000807F32D1206800F018FA10F0080F30D117
:10252000206800F012FA10F0007F31D1206800F02E
:102530000CFA10F0100FABD02268936923F010034F
:1025400093612046FFF79CF82268936943F01003DB
:1025500093619DE71021284600F075F9284600F0A8
:1025600097F9637A022B03D02046FEF7ADFFCBE745
:102570000121206800F0ACFAF6E72046FFF704FAE4
:10258000C8E72046FEF794FF236808225A61C7E790
:10259000206800F0A9FB0746002604E0F1B22046BF
:1025A000FFF728FD01366379B34212D906F00F0315
:1025B00027FA03F313F0010FF4D005EB4613D3F819
:1025C000003513F4004FE9D0F1B22046FFF734FA9A
:1025D000E8E723684FF000725A61A7E790F8D43318
:1025E000012B0ED010B50446012180F8D4130068E9
:1025F00000F0AEFA206800F01AF9002084F8D40345
:1026000010BD0220704790F8D433012B0BD010B5C9
:102610000446012380F8D433006800F055FD002003
:1026200084F8D40310BD0220704708B5006800F09C
:1026300070FA08BDC1EB011100EB810090F84C006D
:102640007047C1EB011100EB8100806B704708B54A
:10265000006800F0ABFA08BD08B5006800F09BFA0E
:1026600008BDC1EB011200EB820200209076D0760B
:1026700082F8250082F8240070472DE9F04F85B0DC
:102680001F469DF838A09DF83C90BDF840B090F8EA
:10269000D433012B54D005460C461646D8460123A8
:1026A00080F8D433C1EB011300EB830300225A7688
:1026B0001F75597583F8269006F07F029A75FFF70B
:1026C000D0FF16F0800F29D1C4EB041305EB830370
:1026D0000022DA75286800F05EFAB9F1010F24D003
:1026E000C4EB041305EB830383F818A01FFA88F3E7
:1026F000C4EB041205EB820213850293CDF804901B
:10270000CDF800A03B4632462146286800F054FA36
:10271000002385F8D43305B0BDE8F08FC4EB041373
:1027200005EB83030122DA75D4E7BAF1010FD7D1A3
:102730000028D5D1BBF1BC0FD2D94FF0BC08CFE7F0
:102740000220E8E782B000230193019B013301934B
:10275000019BB3F1706F1CD80369002BF5DA0A23D3
:10276000019302E0019B013B0193019B002BF9D1F6
:10277000036943F001030361019B01330193019B52
:10278000B3F1706F08D8036913F0010FF4D1002082
:1027900000E0032002B070470320FBE784B010B5CF
:1027A000044603A880E80E009DF81130012B21D1CA
:1027B000A36B23F48033A363E36823F4840323F03F
:1027C0004003E360E36823F44013E3609DF81830AE
:1027D000012B0AD02046FFF7B5FF9DF80E30012BE4
:1027E0001CD0BDE8104004B07047E36843F4801388
:1027F000E360EFE7E36843F04003E3602046FFF760
:10280000A1FF9DF8153023B9A36B43F48033A36374
:10281000E3E7A36B23F48033A363DEE7A36843F00D
:102820000603A360A36843F02003A360D9E783688D
:1028300043F00103836000207047836823F00103A5
:1028400083600020704782B000230193019B013315
:102850000193019BB3F1706F15D80369002BF5DA72
:1028600000230193890141F020010161019B0133A3
:102870000193019BB3F1706F08D8036913F0200F27
:10288000F4D1002000E0032002B070470320FBE7F2
:1028900082B000230193019B01330193019BB3F1AB
:1028A000706F13D80369002BF5DA0023019310230E
:1028B0000361019B01330193019BB3F1706F08D851
:1028C000036913F0100FF4D1002000E0032002B0E0
:1028D00070470320FBE710B59DF8084084B9033327
:1028E0004FEA930E4FF0000C08E000EB023303F5C3
:1028F000805351F8044B1C600CF1010CF445F4D3E7
:10290000002010BD10B5844608464FEA920E02F032
:102910000302002305E00CF58051096840F8041B10
:1029200001337345F7D37AB10CF5805CDCF80040D5
:102930000021CBB2DB0024FA03F300F8013B0131A4
:10294000013A92B2002AF4D110BD42698069104068
:10295000704700EB411000F5A063D0F80805DB6874
:1029600018407047406900F00100704738B50546CF
:10297000C36823F0C043C360012913D019BBC368E7
:1029800043F08043C36000240A2001F037FA0A3480
:102990002846FFF7E7FF08B1C72CF5D9C82C14D09B
:1029A000002038BDC36843F00053C36000240A20F0
:1029B00001F024FA0A342846FFF7D4FF0128EDD0AD
:1029C000C72CF4D9EAE70120EBE70120E9E7000092
:1029D00084B038B5044605A880E80E000023C4F88A
:1029E000003EA36B43F40013A363A36B23F4002303
:1029F000A363A36B23F48023A363E36813F0400F66
:102A000011D19DF81730012B06D0D4F8003423F0F3
:102A10000403C4F800340CE0D4F8003443F0040399
:102A2000C4F8003405E0D4F8003423F00403C4F8FB
:102A3000003410212046FFF706FF054600B10125AE
:102A40002046FFF725FF00B10125002209E004EB35
:102A500042134FF0FF31C3F808150021C3F80C15DD
:102A600001329DF815309342F1D80023A3614FF055
:102A7000FF336361124B9C4217D08023636203F5DE
:102A8000C003A3620F4BC4F800319DF816301BB988
:102A9000A36943F01003A361A2690B4B1343A36125
:102AA0002846BDE8384004B070474FF400736362B5
:102AB00003F18073A362054BC4F80031E5E700BF62
:102AC00000000440E0004000080020A30003E000F4
:102AD00000F5806CD0F8003423F00303C0F8003414
:102AE000D0F8003401F003021343C0F80034012988
:102AF00007D002290BD141F27073CCF804300020CA
:102B000070474BF68033CCF804300020704701202A
:102B1000704730B583B0044600250195D0F84034A5
:102B20000193019B23F02E030193019B43F48073D7
:102B3000C0F84034642001F061F9019B23F48073F4
:102B4000C4F840340A2001F059F9284603B030BDDA
:102B500082B000230193D0F840340193019B23F00D
:102B60002E030193019B13F4805F01D101290CD046
:102B7000019B13F4805F05D021B9019B23F480539E
:102B8000C0F84034002002B07047019B43F48053EA
:102B9000C0F84034ECE782B000230193D0F8403411
:102BA00001930198C0F3414002B0704700F5806086
:102BB000806880B2704700002DE9F84391461C46BA
:102BC0009DF8245000EB411606F5A0634FF0FF324C
:102BD0009A60032D7AD8DFE805F0026B021940F203
:102BE0009D42DA6019F0800F04D13E4A904207D02E
:102BF000002712E0DA6842F48072DA6000270CE005
:102C0000DA6842F06002DA60002706E040F29D6276
:102C1000DA6019F0800F45D1002700225A60DA6887
:102C200042F00202DA60D0F8183401F00F010122FC
:102C30008A401343C0F81834836943F000738361FA
:102C400019F0800F44D14FF00008FFF7A4FF9DF862
:102C50002030022B3FD00022A30503F0FE534FEAA1
:102C6000C92909F4F04943EA0903A90401F4402100
:102C70000B43BDF82810C1F30A010B4343EA0803D4
:102C8000134343F48013C6F80035032D01D0012D02
:102C900005D1D6F8003543F00053C6F80035384664
:102CA000BDE8F883DA6842F48072DA600027B4E79E
:102CB00040F22522DA6019F0800F01D10027ACE73D
:102CC000DA6842F4C072DA600027A6E70127A4E7B9
:102CD0004FF40048B9E7022802D04FF40032BBE7B6
:102CE0000022B9E70000044000F58060406980B22E
:102CF000704770B483B00023019300EB411101F5DC
:102D0000A062D1F80035C3F38143D1F8005554686F
:102D1000866816F0200F08D0ED0FE40F2CB9002DB7
:102D20005AD0012B58D0032B56D01BB3022B21D0E5
:102D3000D1F8003543F08043C1F80035D0F81034A5
:102D400013F47F0F4CD1D1F8003523F00043C1F8C4
:102D50000035D1F8003543F00043C1F80035019B40
:102D600001330193019BB3F57A7F35D81368002BAB
:102D7000F5DB31E0D1F8003543F08043C1F8003590
:102D8000836813F0200F21D1C36A13F47F0F16D18B
:102D9000D1F8003523F00043C1F80035D1F80035F3
:102DA00043F00043C1F80035019B01330193019BBF
:102DB000B3F57A7F10D81368002BF5DB0CE0D1F85F
:102DC000003543F00043C1F8003505E0D1F8003587
:102DD00043F00043C1F80035002003B070BC7047D9
:102DE000D1F8003543F00043C1F80035F4E70000A6
:102DF00000EB4110064AC0F81025D0F8003523F04A
:102E0000804343F00043C0F800350020704700BF06
:102E10000000088070B584B04B78A34CA04216D057
:102E20008C79012C2DD00D6A002D5ED0B1F814C024
:102E300005EB0C04013CB4FBFCF4A4B2B4F5807FB8
:102E400054D94FEA0C24CC614FF480744EE0012A2F
:102E500007D08C88B4F5807FE2D11946FFF7C8FF10
:102E60001EE18C7C0CB1022CDAD18C79002CD7D1EC
:102E700000EB4314D4F80C5525F07005C4F80C553C
:102E8000CEE7CC781CB18C8ACC61012435E08C7CF7
:102E9000012C05D0012A21D00C6ACC6101242CE040
:102EA0000C6ABC2C0DD98C8ACC610C62CC68013CBC
:102EB000012C02D90124CC601FE00224CC60012443
:102EC0001BE0CC61CC68013C012C03D90424CC600C
:102ED000012412E00324CC6001240EE00D6A8C8AE8
:102EE000A542D9D9CC61012407E00124CE78002E77
:102EF00060D08D8A04FB05F5CD61CD69C5F3120C58
:102F00006A4D05EAC4444CEA040C8C7D640704F065
:102F1000C04400EB431303F5A06E4CEA0404CEF862
:102F2000104012B18C69CEF8144000F58065AC6891
:102F300014F0010F0CBF4FF0010C4FF0000CD3F850
:102F4000004524F00054C3F80045D3F8004544EA96
:102F50004C74C3F800458C79012C2DD00024CEF898
:102F60000440D3F800450394039C24F08044039468
:102F7000CC78002C7DD0039C44F400440394039C43
:102F800044F000440394039CC3F80045002A40F039
:102F90008780CB78002B40F083800B6A002B7FD09A
:102FA000CA79002A7CD18A7C032A72D8DFE802F031
:102FB00066806680CD61A0E74E7C0C7C44EAC61436
:102FC00044F00044CEF80440DEF80C4044F06004C5
:102FD000CEF80C40CC79012C12D08C7C012C1FD067
:102FE000032C1DD08C7C012CBBD1CC78002CB8D10B
:102FF000CC68013C032CB4D8DFE804F01F262D3444
:10300000CC78002CE9D1DEF8044044F48034CEF8CA
:103010000440DEF80C4044F04004CEF80C40DCE7FD
:10302000CC79012CDED1CC78012CDBD1DEF8044048
:1030300044F48034CEF80440D4E7DEF8044044F48D
:103040000044CEF804408CE7DEF8044044F00E045F
:10305000CEF8044085E7DEF8044044F48044CEF81E
:1030600004407EE7DEF8044044F44044CEF80440D7
:1030700077E7039C24F40044039480E70333C26A97
:1030800092B2C3F38F03934203D9836943F02003C1
:103090008361002300930B8C4A788969FFF71BFC3E
:1030A000002004B070BD00BF000004400000F81F05
:1030B00003332A6992B2C3F38F039A42E9D2836938
:1030C00043F080638361E4E730B583B004460023B6
:1030D0000193FFF7B2FB10212046FFF7B4FB054632
:1030E00000B101252046FFF7D3FB00B101250022E6
:1030F0000AE004EB4211D1F8003523F0802343F0BD
:103100008043C1F8003501320F2AF2D9002100E0D6
:1031100001310F2916D804EB411000F5A062D0F858
:10312000003523F4004343F04043C0F80035019BD1
:1031300001330193019BB3F57A7FE9D81368002B23
:10314000F5DBE5E74FF0FF33C4F814346361204644
:10315000FFF76DFB284603B030BD0000002800F0EB
:10316000E08170B582B00446036813F0010F3BD0D4
:103170009F4B9B6803F00C03042B2CD09C4B9B684B
:1031800003F00C03082B21D06368B3F5803F4FD0C8
:10319000B3F5A02F52D0964B1A6822F480321A60F1
:1031A0001A6822F480221A606368002B50D000F065
:1031B0001FFE05468E4B1B6813F4003F14D100F030
:1031C00017FE401B6428F5D90320B1E1884B5B68EA
:1031D00013F4800FD8D0864B1B6813F4003F03D044
:1031E0006368002B00F09F81236813F0020F54D016
:1031F0007F4B9B6813F00C0F3ED07D4B9B6803F018
:103200000C03082B33D0E368002B68D0794B0122E4
:103210001A6000F0EDFD0546754B1B6813F0020FB8
:1032200054D100F0E5FD401B0228F5D903207FE1D1
:103230006F4A136843F480331360B5E76C4B1A6828
:1032400042F480221A601A6842F480321A60ABE7B6
:1032500000F0CEFD0546664B1B6813F4003FC3D05B
:1032600000F0C6FD401B6428F5D9032060E1604BE7
:103270005B6813F4800FC6D15D4B1B6813F0020F1F
:1032800003D0E368012B40F05081594A136823F0C2
:10329000F803216943EAC1031360236813F0080FA0
:1032A00042D063696BB3534B0122C3F8802E00F008
:1032B0009FFD05464E4B5B6F13F0020F34D100F0BB
:1032C00097FD401B0228F5D9032031E1484A1368D5
:1032D00023F0F803216943EAC1031360DDE7454B9E
:1032E00000221A6000F084FD0546414B1B6813F074
:1032F000020FD2D000F07CFD401B0228F5D903203C
:1033000016E13C4B0022C3F8802E00F071FD05460B
:10331000374B5B6F13F0020F06D000F069FD401BC6
:103320000228F5D9032003E1236813F0040F77D0B6
:103330002F4B1B6C13F0805F33D1002301932C4B78
:103340001A6C42F080521A641B6C03F08053019394
:10335000019B0125284B1B6813F4807F23D0A368B1
:10336000012B34D0052B38D0214B1A6F22F00102EB
:103370001A671A6F22F004021A67A368002B3DD067
:1033800000F036FD06461A4B1B6F13F0020F46D1B4
:1033900000F02EFD801B41F288339842F3D90320C0
:1033A000C6E00025D6E7144A136843F4807313601F
:1033B00000F01EFD0646104B1B6813F4807FCED133
:1033C00000F016FD801B0228F5D90320B0E0084A62
:1033D000136F43F001031367CFE7054B1A6F42F0F9
:1033E00004021A671A6F42F001021A67C5E700BFAC
:1033F00000380240000047420070004000F0F8FC36
:103400000646524B1B6F13F0020F08D000F0F0FC81
:10341000801B41F288339842F3D9032088E0EDB94C
:10342000A369002B00F08380484A926802F00C02E6
:10343000082A51D0022B17D0454B00221A6600F003
:10344000D7FC0446414B1B6813F0007F42D000F0CC
:10345000CFFC001B0228F5D9032069E03B4A136C1E
:1034600023F080531364DBE7394B00221A6600F027
:10347000BFFC0546354B1B6813F0007F06D000F0FB
:10348000B7FC401B0228F5D9032051E0E369226A0A
:103490001343626A43EA8213A26A5208013A43EA7A
:1034A0000243E26A43EA0263284A5360284B01223E
:1034B0001A6600F09DFC0446244B1B6813F0007F45
:1034C00006D100F095FC001B0228F5D903202FE05F
:1034D00000202DE000202BE0012B2BD01B4B5B6844
:1034E00003F48001E269914226D103F03F02216A90
:1034F0008A4223D1616A47F6C0721A40B2EB811F3B
:103500001ED103F44031A26A5208013AB1EB024FD6
:1035100018D103F07063E26AB3EB026F14D100209C
:1035200006E001207047012002E0012000E00020B9
:1035300002B070BD0120FBE70120F9E70120F7E7A9
:103540000120F5E70120F3E70120F1E70038024010
:103550000000474208B5334B9B6803F00C03042B73
:103560005BD0082B5BD12F4B5A6802F03F025B689F
:1035700013F4800F2CD02B4B5868C0F388104FEAFF
:10358000401CBCEB000C6EEB0E0E4FEA8E1343EAB0
:103590009C634FEA8C11B1EB0C0163EB0E03DB0073
:1035A00043EA5173C90011EB000C43F100035902C7
:1035B00000234FEA4C2041EADC51FDF74BF8194B50
:1035C0005B68C3F3014301335B00B0FBF3F008BD5C
:1035D000144B5868C0F388104FEA401CBCEB000C39
:1035E0006EEB0E0E4FEA8E1343EA9C634FEA8C118A
:1035F000B1EB0C0163EB0E03DB0043EA5173C9002E
:1036000011EB000C43F10003990200234FEA8C20D8
:1036100041EA9C51FDF71EF8D1E70348D7E703487C
:10362000D5E700BF0038024000127A000024F40001
:10363000002800F09B8070B50D4604464F4B1B6878
:1036400003F007038B4208D2CBB24C4A13701368C5
:1036500003F007038B4240F08B80236813F0020FC6
:1036600017D013F0040F04D0454A936843F4E05395
:103670009360236813F0080F04D0414A936843F421
:10368000604393603E4A936823F0F003A1680B43C4
:103690009360236813F0010F32D06368012B21D0AF
:1036A0009A1E012A25D9364A126812F0020F61D0FB
:1036B00033498A6822F0030213438B6000F098FBC1
:1036C00006462F4B9B6803F00C036268B3EB820F36
:1036D00016D000F08DFB801B41F288339842F0D960
:1036E000032042E0264A126812F4003FE0D1012094
:1036F0003BE0234A126812F0007FD9D1012034E068
:103700001E4B1B6803F00703AB4207D9EAB21B4B01
:103710001A701B6803F00703AB422DD1236813F026
:10372000040F06D0164A936823F4E053E1680B4374
:103730009360236813F0080F07D0114A936823F4AD
:103740006043216943EAC1039360FFF703FF0C4B19
:103750009B68C3F303130B4AD35CD8400A4B186031
:103760000A4B186800F0F8FA002070BD012070477D
:103770000120FAE70120F8E70120F6E7003C0240CB
:10378000003802401C65000858000020540000204A
:10379000014B1868704700BF5800002008B5FFF7BC
:1037A000F7FF044B9B68C3F38223034AD35CD840E2
:1037B00008BD00BF003802401465000808B5FFF7D7
:1037C000E7FF044B9B68C3F34233034AD35CD84002
:1037D00008BD00BF003802401465000830B583B052
:1037E0000446036813F0050F06D1236813F0020F97
:1037F0002ED1002003B030BD4A4B00229A6600F063
:10380000F7FA0546484B1B6813F0006F06D000F02E
:10381000EFFA431B022BF5D90320EBE76268A3689C
:103820001B0743EA8213404AC2F884303D4B012211
:103830009A6600F0DDFA05463B4B1B6813F0006FFB
:10384000D3D100F0D5FA431B022BF5D90320D1E7E1
:1038500000230193344B1A6C42F080521A641B6CA3
:1038600003F080530193019B304A136843F4807343
:10387000136000F0BDFA05462C4B1B6813F4807FE3
:1038800006D100F0B5FA431B022BF5D90320B1E7AE
:10389000254B1B6F13F4407314D0E26802F440729E
:1038A0009A420FD0204B1A6F22F440721D4901201A
:1038B000C1F8400E0020C1F8400E1A671B6F13F0CC
:1038C000010F13D1E36803F44072B2F5407F1ED0BC
:1038D000154A936823F4F813936013490B6FE26859
:1038E000C2F30B0213430B67002083E700F080FA5A
:1038F00005460D4B1B6F13F0020FE3D100F078FA71
:10390000401B41F288339842F3D9032072E70649FD
:103910008A6822F4F81223F0704323F440731343AF
:103920008B60DAE700004742003802400070004038
:10393000012801D000207047154B9B6813F4000349
:1039400002D01BB313487047114B5B6813F4800F10
:1039500014D00F4B5A6802F03F020F4BB3FBF2F347
:103960000B4AD2F88400C0F3881003FB00F0D2F8B1
:103970008430C3F30273B0FBF3F07047044B5A6812
:1039800002F03F02054BB3FBF2F3E9E7002070477A
:10399000003802400080BB0000127A000024F400CE
:1039A00000230F2B00F2E98070B582B065E08568D6
:1039B0004FEA430E032404FA0EF425EA0405CC680A
:1039C00004FA0EF42C438460446824EA02044A6832
:1039D000C2F300129A40224342605CE0DC080834E3
:1039E00050F8242003F00705AD004FF00F0E0EFA3B
:1039F00005FE22EA0E0E0A69AA4042EA0E0240F8CB
:103A000024205CE0072200E0002202FA0EF22A43A2
:103A100002345A4D45F82420594A94686FEA0C0242
:103A200024EA0C054E6816F4801F01D04CEA040508
:103A3000534CA560E46802EA04054E6816F4001FC2
:103A400001D04CEA04054E4CE560646802EA0405C6
:103A50004E6816F4003F01D04CEA0405484C6560FE
:103A6000246822404D6815F4803F01D04CEA0402DE
:103A7000434C226001330F2B7DD801229A400C6801
:103A800004EA020C32EA0404F4D14C6804F00304A2
:103A9000013C012C8BD94A6802F00302032A09D0A9
:103AA000C4685D000322AA4024EA02048A68AA408E
:103AB0002243C2604A6802F00302022A8ED00468E0
:103AC0004FEA430E032202FA0EF224EA02044A6885
:103AD00002F0030202FA0EF2224302604A6812F474
:103AE000403FC7D000220192264A546C44F48044DF
:103AF0005464526C02F480420192019A9C08A51C05
:103B00001E4A52F8255003F0030E4FEA8E0E0F2284
:103B100002FA0EF225EA02051B4A90423FF474AF06
:103B200002F5806290421AD002F58062904218D06D
:103B300002F58062904216D002F58062904214D065
:103B400002F58062904212D002F58062904210D05D
:103B500002F5806290423FF455AF082255E70122FA
:103B600053E7022251E703224FE704224DE70522E3
:103B70004BE7062249E702B070BD704700380140AC
:103B8000003C014000380240000002400369194235
:103B900001D001207047002070470AB18161704751
:103BA00009048161704770B50446866D00F020F904
:103BB00094F83530DBB2022B06D0802363650023F6
:103BC00084F83430012070BD05462268136823F064
:103BD000160313602268536923F080035361236C3A
:103BE000E3B12268136823F00803136022681368A6
:103BF00023F00103136023681B6813F0010F11D039
:103C000000F0F6F8431B052BF5D92023636503204C
:103C100084F83500002384F83430D4E7A36C002BFB
:103C2000DFD1E3E7E26D3F239340B360012384F8E3
:103C30003530002084F83400C5E790F83530DBB229
:103C4000022B03D08023436501207047052380F8B1
:103C500035300268136823F00103136000207047B9
:103C6000002807DB00F01F02400901239340024AAD
:103C700042F82030704700BF00E100E0002808DB78
:103C80000901C9B200F1604000F5614080F80013FD
:103C9000704700F00F000901C9B2014B1954704779
:103CA00014ED00E000B500F00700C0F1070CBCF116
:103CB000040F28BF4FF0040C031D062B0FD9C31EA1
:103CC0004FF0FF3E0EFA0CF021EA000199400EFA87
:103CD00003FE22EA0E0241EA02005DF804FB002323
:103CE000EEE70000074AD36823F4E0631B041B0CD3
:103CF000000200F4E060034343F0BF6343F4003389
:103D0000D360704700ED00E010B50446054BD8685D
:103D1000C0F30220FFF7C6FF01462046FFF7AEFFC3
:103D200010BD00BF00ED00E008B5FFF799FF08BD2A
:103D30000138B0F1807F0BD24FF0E0235861054A83
:103D4000F02182F823100020986107221A61704741
:103D50000120704700ED00E010B504460E4B1A78C4
:103D60004FF47A73B3FBF2F30C4A1068B0FBF3F034
:103D7000FFF7DEFF68B90F2C01D901200AE000220D
:103D800021464FF0FF30FFF7BFFF054B1C600020BE
:103D900000E0012010BD00BF5200002058000020AC
:103DA0005400002008B50B4B1A6842F400721A60E8
:103DB0001A6842F480621A601A6842F480721A60CB
:103DC0000320FFF78FFF0020FFF7C6FFFDF790F9F4
:103DD000002008BD003C0240034A1168034B1B78D9
:103DE0000B441360704700BF440B002052000020BA
:103DF000014B1868704700BF440B002038B50446DB
:103E0000FFF7F6FF0546B4F1FF3F02D0044B1B78E5
:103E10001C44FFF7EDFF401BA042FAD338BD00BFA2
:103E200052000020002800F0CC8070B5044690F8C5
:103E30003D30002B77D0242384F83D30226813686E
:103E400023F0010313602268136843F400431360F6
:103E50002268136823F400431360FFF79FFC626835
:103E60005A4B9A4264D85A4B98428CBF0023012384
:103E7000002B40F0A8805749A1FB00318B0C25682E
:103E80006A6822F03F0242EA91426A6021680A6A47
:103E900022F03F0266684D4DAE424FD801331343C6
:103EA0000B622168CA6922F44F4222F0FF02656862
:103EB000464B9D424CD8431E6D00B3FBF5F30133D6
:103EC00040F6FC70034278D0C3F30B031A43CA6177
:103ED00021680B6823F0C003E269206A02431343A0
:103EE0000B6021688B6823F4034323F0FF032269EE
:103EF000E068024313438B602168CB6823F0FF0323
:103F00006269A06902431343CB602268136843F0DF
:103F10000103136000202064202384F83D302063D7
:103F200084F83E0070BD80F83C30FDF701F982E76F
:103F3000294B98428CBF0023012399E74FF49675D3
:103F400005FB03F3254DA5FB03539B090133A6E7AE
:103F5000A668BEB9431E05EB450CB3FBFCF3013369
:103F6000C3F30B03B3FA83F35B0943BBC6B9431E28
:103F700005EB4505B3FBF5F30133C3F30B0343F442
:103F80000043A3E7431E05EB850C0CEB8C0CB3FB45
:103F9000FCF30133C3F30B03B3FA83F35B09E4E7E8
:103FA000431E05EB850505EB8505B3FBF5F30133F2
:103FB000C3F30B0343F4404388E7042386E701235C
:103FC00084E7012070470120ACE700BFA086010014
:103FD0007F841E0083DE1B43FF083D00D34D62102B
:103FE000002800F0BF8038B5044690F84130002B1F
:103FF00051D0022284F841202168CB6923F47B63ED
:1040000023F00F03CB6123681A626369934263D084
:10401000E368002B46D11025A368202B00D86D0043
:104020000120FFF785FC2369B3F5007F3CD0B0FB8E
:10403000F5F000EB800043006269B3FBF2F3053357
:10404000494AA2FB0323C3F3C002C2EBD3035B08BC
:1040500011029A1EFD2A41D822690A4321681A4397
:104060000A622168CB6923F47B6323F00F03626843
:10407000A0680243E0680243A0690243134343F48B
:104080000063CB61236A012B2ED0002060640123E2
:1040900084F8413038BD80F84030344B4363FDF73D
:1040A0007FF8A6E72025B7E7E36853B1AD00B0FB82
:1040B000F5F000EB800043006269B3FBF2F30533D7
:1040C000BEE7ED00B0FBF5F000EB80004300626955
:1040D000B3FBF2F30533B3E70021BAE7636C43F0B7
:1040E000100363640120D5E7214B63632268214BF1
:1040F0009A421FD04FF04022D36923F47B6323F010
:104100000F03D36122681B4B9A4215D04FF0402316
:1041100002221A622268174B9A4210D04FF04025B3
:10412000EB699BB26268B2F5007F0AD0C2B94FF466
:10413000807008E0104ADFE7A3F58063E8E70E4DE2
:10414000EEE74FF48070B4F808C0A189228B40EAF2
:104150000C0001430A43134343F40063EB6194E70B
:104160000020F0E701207047CDCCCCCCF341000813
:10417000054400080038004000340040704708B58E
:10418000426A03681288DA60436A02334362438DED
:104190009BB2013B9BB24385438D9BB203B108BDEB
:1041A0000268536823F0A0035360012380F8413074
:1041B000FFF7E4FFF3E7704708B50368DA68C36AFE
:1041C0001A80C36A0233C362438E9BB2013B9BB227
:1041D0004386438E9BB203B108BD0268536823F047
:1041E00060035360012380F84130FFF7E4FFF3E7F9
:1041F000704710B584B0044602689368039390F842
:104200004130DBB2042B06D094F84130DBB2032BF3
:104210002CD004B010BD039B13F0010F03D05368E2
:1042200013F0400F1FD1039B13F0400FECD0236815
:104230005A6812F0200FE7D05A6822F060025A60E4
:10424000002301932368DA6801929B680193019B24
:10425000012384F84130636C43F002036364204619
:10426000FFF7C6FFD0E7FFF7A7FFDCE7039B13F0DC
:10427000020F04D023685B6813F0800F1DD1039BED
:1042800013F0080FC5D023685A6812F0200FC0D071
:104290005A6822F0A0025A600023029323689B68A8
:1042A0000293029B012384F84130636C43F00403C2
:1042B00063642046FFF79CFFABE72046FFF75FFFF4
:1042C000DDE7704708B5436A9A1C426202681B88A2
:1042D000D360438D9BB2013B9BB24385438D9BB220
:1042E0003BB90268536823F0A0035360438E9BB22E
:1042F00003B108BD012380F84130FFF7E2FFF8E782
:1043000008B50268154B9A421CD04FF04023DA687A
:10431000C36A991CC1621A80438E9BB2013B9BB257
:104320004386438E9BB263B902680C4B9A420CD011
:104330004FF04022536823F060035360438D9BB2DB
:104340002BB108BDA3F58063E1E7054AF2E701233D
:1043500080F84130FFF7B5FFF3E700BF00380040B9
:104360000034004008B5436A9A1C42621A8801680A
:10437000134B994218D04FF04023DA60438D9BB223
:10438000013B9BB24385438D9BB263B902680C4BE2
:104390009A420CD04FF04022536823F0A0035360A0
:1043A000438E9BB22BB108BDA3F58063E5E7054AB8
:1043B000F2E7012380F84130FFF783FFF3E700BF06
:1043C000003800400034004008B50368DA68C36A6A
:1043D000991CC1621A80438E9BB2013B9BB24386FB
:1043E000438E9BB23BB90268536823F0600353606D
:1043F000438D9BB203B108BD012380F84130FFF724
:1044000060FFF8E710B586B0044603689A68059225
:10441000704A93426FD04FF04022916804915B68DC
:104420000393536802936368B3F5007F01D0002BB8
:1044300070D1059B13F0020F03D0039B13F0800F84
:104440005CD1049B13F0010F03D0029B13F0400FCB
:1044500058D1049B13F0400F24D0029B13F0200F7F
:1044600020D022685B4B9A4250D04FF040225368D4
:1044700023F0600353602268536823F0A003536065
:10448000002300932368DA6800929B680093009BE6
:10449000012384F84130636C43F0020363642046D7
:1044A000FFF7A6FE059B13F0080F22D0039B13F025
:1044B000200F1ED02268536823F0A00353602268A7
:1044C000444B9A4224D04FF04022536823F06003BB
:1044D00053600023019323689B680193019B012390
:1044E00084F84130636C43F0040363642046FFF7B3
:1044F0007FFE06B010BDA2F580628EE72046FFF772
:10450000E1FE9EE72046FFF7FBFEA2E7324AAEE758
:10451000314ADAE7049B13F0020F03D0029B13F039
:10452000800F4AD1059B13F0010F03D0039B13F0BA
:10453000400F46D1059B13F0400F1CD0039B13F096
:10454000200F18D02268536823F06003536022685C
:10455000204B9A4239D04FF04022536823F0A003F9
:104560005360012384F84130636C43F002036364B9
:104570002046FFF73DFE049B13F0080FB9D0029BC5
:1045800013F0200FB5D02268124B9A421FD04FF083
:104590004022536823F0A00353602268536823F03D
:1045A00060035360012384F84130636C43F00403DB
:1045B00063642046FFF71CFE9BE72046FFF7D2FE10
:1045C000B0E72046FFF700FFB4E7034AC5E7024A19
:1045D000DFE700BF003800400034004000285AD018
:1045E00010B50446436A33B94368B3F5827F05D0FA
:1045F0000023C36102E00023036143610023A3623F
:1046000094F85130002B40D0022384F851302268B6
:10461000136823F040031360636803F48273A26895
:1046200002F404421343E26802F400621343226975
:1046300002F002021343626902F001021343A2690D
:1046400002F400721343E26902F038021343226A53
:1046500002F080021343A26A02F40052216813435D
:104660000B60638B03F00403626A02F0100221689E
:1046700013434B602268D36923F40063D3610020A5
:104680006065012384F8513010BD84F85030204615
:10469000FCF7E6FDB8E701207047026802F10C0361
:1046A00053E8003F23F490730C3242E800310029B4
:1046B000F3D1026802F1140353E8003F23F0010331
:1046C000143242E800310029F3D1036B012B05D0ED
:1046D000202380F84230002303637047026802F110
:1046E0000C0353E8003F23F010030C3242E8003182
:1046F0000029F3D1ECE790F84130DBB2212B01D057
:10470000022070478368B3F5805F17D0036A5A1C94
:1047100002621A7803685A60C38C9BB2013B9BB259
:10472000C3844BB90268D36823F08003D360026866
:10473000D36843F04003D360002070470369002B27
:10474000E4D1036A1B880268C3F308035360036A59
:1047500002330362E0E7000010B504460268136903
:1047600023F44053C1680B431361836802691A4301
:1047700043691A43C3691A430168CB6823F416439B
:1047800023F00C031343CB600268536923F4407396
:1047900081690B4353610368314A934206D002F5A5
:1047A0008062934202D0FEF7F9FF01E0FFF706F8BE
:1047B000E369B3F5004F29D00021031849411B18C4
:1047C00041F10001C90041EA5371DB001818636828
:1047D0004FEA83024FEA937341F10001FBF73AFF7E
:1047E000204AA2FB00314909642303FB11031B018A
:1047F0003233A2FB03235B0903F0F00202EB011248
:1048000003F00F03216813448B6010BD00230218CE
:1048100043EB0301121841F10001C90041EA527152
:10482000D200101841F10001626892185B41FBF759
:1048300011FF0C4AA2FB00314909642303FB110359
:10484000DB003233A2FB03235B095A0002F4F87247
:1048500002EB011203F00703216813448B60D4E7D5
:10486000001001401F85EB512DE9F04383B0054650
:104870000E4617469946DDF828802B681C6836EAF4
:1048800004040CBF01240024BC4228D1B8F1FF3F2E
:10489000F3D0FFF7ADFAA0EB0900404523D8B8F1FB
:1048A000000F22D02B68DA6812F0040FE5D0802EBA
:1048B000E3D0402EE1D01A6812F0080FDDD00024BA
:1048C00001941A6801925B680193019B2846FFF7E7
:1048D000E4FE08236B6485F84040012000E00020DE
:1048E00003B0BDE8F0830320FAE70320F8E760B3E4
:1048F00010B5044690F8413013B3242384F84130B6
:104900002268D36823F40053D3602046FFF724FFC6
:104910002268136923F4904313612268536923F0DA
:104920002A0353612268D36843F40053D360002004
:104930006064202384F8413084F84230606310BD05
:1049400080F84030FCF7C2FCD7E7012070472DE922
:10495000F04182B01E4690F84130DBB2202B56D198
:1049600004460D469046002955D00AB901204FE073
:1049700000234364212380F84130FFF739FA0746CA
:10498000A4F82480A4F82680A368B3F5805F02D041
:104990004FF0000814E023692BB34FF000080FE03C
:1049A000202384F84130032032E038F8023B2268AB
:1049B000C3F308035360E28C92B2013A92B2E284EC
:1049C000E38C9BB293B100963B46002280212046A7
:1049D000FFF74AFF0028E3D1002DE6D015F8012BA0
:1049E00023685A60E7E7A8460025E9E700963B46BA
:1049F000002240212046FFF737FF18B9202384F812
:104A0000413005E0202384F84130032000E00220FB
:104A100002B0BDE8F0810120FAE7704708B50168EF
:104A2000CA6822F04002CA60202280F84120FFF7C5
:104A3000F4FF002008BD7047704708B5806B002365
:104A4000C385FFF7F9FF08BD704790F84230DBB22D
:104A5000222B69D18368B3F5805F4FD0826AB3F5AA
:104A6000805F04D0002B56D10369002B53D103681B
:104A70005B681370836A01338362C38D9BB2013B11
:104A80009BB2C385002B51D100B583B00268D368B7
:104A900023F02003D3600268D36823F48073D360CB
:104AA0000268536923F001035361202380F84230E8
:104AB00000234363036B012B33D10023036302689C
:104AC00002F10C0353E8003F23F010030C3242E8DC
:104AD00000310029F3D103681A6812F0100F06D0D4
:104AE000002201921A6801925B680193019B818DFB
:104AF000FFF7AAFF002003B05DF804FB0269002A5B
:104B0000ACD1826A03685B68C3F308031380836ACD
:104B100002338362B1E703685B6803F07F031370BD
:104B2000A8E7FFF788FFE5E70220704700207047FD
:104B300010B582B0044602681368D068516913F05A
:104B40000F0F09D113F0200F0CD010F0200F09D057
:104B50002046FFF77AFF16E011F0010115D110F49D
:104B6000907F12D1216B012979D013F0800F03D0EF
:104B700010F0800F40F0218113F0400F03D010F0AF
:104B8000400F40F01E8102B010BD13F0010F06D09F
:104B900010F4807F03D0626C42F00102626413F073
:104BA000040F04D019B1626C42F00202626413F087
:104BB000020F04D019B1626C42F00402626413F077
:104BC000080F07D010F0200F00D119B1626C42F02D
:104BD00008026264626C002AD5D013F0200F02D064
:104BE00010F0200F29D123685B6903F04003626C49
:104BF00012F0080F00D163B32046FFF74EFD236883
:104C00005B6913F0400F20D0226802F1140353E8CF
:104C1000003F23F04003143242E800310029F3D171
:104C2000E36B73B1694A1A65E06BFFF706F8002879
:104C3000A9D0E06B036D9847A5E72046FFF705FF75
:104C4000D1E72046FFF7F8FE9DE72046FFF7F4FE88
:104C500099E72046FFF7F0FE0023636493E713F023
:104C6000100F82D010F0100F3FF47FAF002301939C
:104C70001368019353680193019B536913F0400F2C
:104C80005FD0E26B13685B689BB2002B4AD0A18DAA
:104C9000994247D9E385D369B3F5807F37D022683D
:104CA00002F10C0353E8003F23F480730C3242E816
:104CB00000310029F3D1226802F1140353E8003FC8
:104CC00023F00103143242E800310029F3D12268B5
:104CD00002F1140353E8003F23F04003143242E88A
:104CE00000310029F3D1202384F8423000232363CC
:104CF000226802F10C0353E8003F23F010030C324A
:104D000042E800310029F3D1E06BFEF74CFF0223AB
:104D10006363A18DE38D9BB2C91A89B22046FFF768
:104D200093FE30E7A18D99427FF42DAFD369B3F59F
:104D3000807F7FF428AF022363632046FFF784FE61
:104D400021E7A18DE38D9BB2C91A89B2E38D9BB295
:104D5000002B3FF418AF00293FF415AF226802F191
:104D60000C0353E8003F23F490730C3242E8003008
:104D70000028F3D1226802F1140353E8003F23F026
:104D80000103143242E800300028F3D1202384F8D4
:104D9000423000232363226802F10C0353E8003FF2
:104DA00023F010030C3242E800300028F3D1022334
:104DB00063632046FFF748FEE5E62046FFF79BFCCD
:104DC000E1E62046FFF72AFEDDE600BF3B4A000889
:104DD000034AD2F8883043F47003C2F88830704731
:104DE00000ED00E008B50378DBB20B2B00D008BD66
:104DF000D0F87C33002BFAD09B699847F7E738B599
:104E00000446002306E003F1E00204EB82020021E5
:104E1000516001330F2BF6D9002304E0E218002182
:104E200082F81C110133B3F5007FF7D300252570FC
:104E300065700123A370C4F8C45323764022A27185
:104E4000657684F81C5384F81D3384F81F5384F866
:104E50001E534FF48072294604F11C00FBF770FAD0
:104E60004FF40072294604F58E70FBF769FAC4F816
:104E70002653C4F82A53C4F82E53C4F83253A4F866
:104E800036533E22294604F54E70FBF759FA284660
:104E900038BD70B584B004464578072D00F22C81EA
:104EA000DFE815F00800480069009A00BF00E5003F
:104EB000FE001701082100F01FFE18B1032821D0C1
:104EC000012509E194F82D33A37101256570029342
:104ED0000026019694F81D33009394F81C33802229
:104EE0002179204600F013FFA3790293019694F8EC
:104EF0001D33009394F81C3332466179204600F04C
:104F000006FFE9E094F81E330133DBB284F81E3368
:104F1000032B03D90D2323700125DDE061792046A1
:104F200000F01DFF2179204600F019FF00232370B7
:104F30000125D1E0122100F0DFFD10B902236370DA
:104F4000CAE0032840F0C88094F81E330133DBB276
:104F500084F81E33032B02D90D232370BCE0617942
:104F6000204600F0FCFE2179204600F0F8FE0023E8
:104F700063702370B0E0012100F014FE18B1032823
:104F800024D00125A8E00220FCF71FFB012584F8AE
:104F90001C5303236370A37902930026019694F8AF
:104FA0001D3300932B4680222179204600F0AFFE6E
:104FB000A3790293019694F81D33009394F81C335F
:104FC00032466179204600F0A2FE85E00D23237071
:104FD0000023637001257FE0092100F0A8FD18B9C6
:104FE00004236370012577E0032801D0012573E0D5
:104FF00094F81E330133DBB284F81E33032B03D93C
:105000000D232370012567E06179204600F0A7FE9B
:105010002179204600F0A3FE002363702370012550
:105020005AE0B0F83A1300F082FD18B90523637016
:10503000012551E0032801D001254DE094F81E33ED
:105040000133DBB284F81E33032B03D90D23237005
:10505000012541E06179204600F081FE217920465A
:1050600000F07DFE002363702370012534E090F88A
:10507000341319B90623437001252DE0FF2300F5F1
:105080008E7200F06FFD18B906236370012523E0CE
:10509000032801D001251FE00623637001251BE0D2
:1050A00090F8351319B907234370012514E0FF2345
:1050B00000F58E7200F056FD18B9072363700125C4
:1050C0000AE0032801D0012506E0072363700125CB
:1050D00002E090F8365315B9284604B070BDFF239E
:1050E00000F58E72294600F03DFD05460028F3D0FC
:1050F000032803D00125EFE70125EDE70025EBE7C5
:10510000D8B170B50E46044680F8CC230025C0F80F
:105110007C53C0F88053FFF772FE84F8235384F861
:10512000205384F8215384F822530EB1C4F8D46379
:105130002046FCF7DDF9002070BD022070470A46CA
:1051400051B1D0F880334BB9591CC0F88013DE330D
:1051500040F823200020704702207047022070474B
:1051600090F83C338B4203D980F824130020704719
:105170000220704710B5044600200BE04FF01A0CD7
:105180000CFB0E4E9EF849C39C451CD0FF2B1AD039
:105190000130C0B2012815D886464FF01A0C0CFB1E
:1051A000004C9CF847C38C4501D0FF29F0D14FF04B
:1051B0001A0C0CFB0E4C9CF848C39445DED0FF2A19
:1051C000E6D1DBE7FF2010BD10B50446FCF70BFA73
:1051D00001212046FCF7D4F9002010BD30B587B07E
:1051E000044602238DF8173090F82133DBB2012BEF
:1051F00011D02378DBB20B2B7CD8DFE813F00F0043
:105200002100460012017B007E00EF0093009D000C
:10521000A700C300090103230370EAE794F82033D1
:10522000002B67D001232370C820FCF7CEF920465D
:10523000FCF7E9F9002384F81C33C4F8C83359E0BB
:1052400094F82333DBB2012B0FD0D4F8C833B3F575
:105250007A7F13D994F81F330133DBB284F81F33FC
:10526000032B08D90D23237044E0002384F81F3357
:10527000022323703EE0002323703BE00A33C4F88E
:10528000C8330A20FCF7A1F934E0D4F8D43313B1C1
:105290000421204698476420FCF797F92046FCF744
:1052A00051F984F81D03052323700021204600F0E6
:1052B00043FD60718021204600F03EFD01462071D3
:1052C000A37902930025019594F81D33009394F877
:1052D0001C338022204600F01AFDA3790293019529
:1052E00094F81D33009394F81C332A4661792046C4
:1052F00000F00DFD002007B030BD2046FFF7C9FDCE
:105300008DF817009DF81730002BF3D184F8243363
:1053100094F83733012B02D007232370EAE70823E0
:105320002370E7E7D4F8D433002BE3D001212046E3
:10533000984708232370DDE794F83D13204600F0DA
:1053400042FC0028D6D109232370D3E794F83F33D9
:1053500013F0200F02D10A232370CBE7012120464E
:1053600000F042FC8DF817009DF8173013B90A239E
:105370002370BFE79DF81730DBB2032BBAD10A23A5
:105380002370B7E7D4F88033002BB3D00023C4F8E0
:105390007C3373B1D4F87C33EBB19B6820469847DB
:1053A000B0B906232370D4F8D4330321204698479C
:1053B000A0E703F1DE0254F82220107994F8471395
:1053C000884202D00133DBB2E3E7C4F87C23E1E793
:1053D0000D2323708EE70D2323708BE7D4F87C33E5
:1053E0009BB11B69204698478DF817009DF8173030
:1053F00013B90B2323707DE79DF81730DBB2022B26
:105400007FF478AF0D23237074E70D23237071E7C9
:10541000D4F87C33002B3FF46DAF5B69204698478E
:1054200068E7002384F821332046FFF7E8FCD4F82E
:105430007C332BB1DB68204698470023C4F87C33CB
:10544000D4F8D43313B105212046984794F8223379
:10545000DBB2012B03D02046FCF7C5F84AE7002356
:1054600084F822332046FFF7AFFE43E7C0F8C413A9
:10547000704708B5D0F8C4230132C0F8C423FFF741
:10548000B1FC08BD012380F823337047002380F866
:105490002333012380F8213370470346012280F82B
:1054A0002023002083F8210383F82203704738B5B6
:1054B0000446012380F82133002580F8205380F82A
:1054C0002353FCF798F82179204600F048FC6179D5
:1054D000204600F044FC284638BD000003468C46B8
:1054E000002970D0097880F826139CF8011080F804
:1054F00027139CF802109CF8030041EA0021A3F84E
:1055000028139CF8041083F82A139CF8051083F8DC
:105510002B139CF8061083F82C139CF8071083F8C3
:105520002D1393F81D0301282DD9022840D0032004
:10553000082A49D99CF808209CF8091042EA01225F
:10554000A3F82E239CF80A209CF80B1042EA0122B3
:10555000A3F830239CF80C209CF80D1042EA01229D
:10556000A3F832239CF80E2083F834239CF80F20F4
:1055700083F835239CF8102083F836239CF81120FB
:1055800083F83723704720290BD808290BD3083913
:10559000C9B20E4820FA01F111F0010F03D000202A
:1055A000C6E740290BD0082183F82D130020BFE760
:1055B000082906D0082183F82D130020B8E7002021
:1055C000B6E70020B4E70220704700BF01010001E8
:1055D0000B7803704B7843708B788370CB78C370F3
:1055E0000B7903714B7943718B798371CB79C371DB
:1055F0000B7A0372704710B5864613780B70537898
:105600004B7093788B7092F803C081F803C01379C4
:10561000507943EA00238B8094798C715A1E92B2A0
:10562000B2F5007F0CD200209EF81D23CAB90CF001
:10563000030CBCF1030F46D8DFE80CF0090D040D94
:105640000320F1E7B3F5007F10D903200EE0402BD3
:105650000CD903200AE0013CE4B20F2C06D9032048
:1056600004E0012A03D0022A1CD0032010BD0CF054
:10567000030CBCF1030F28D8DFE80CF00206020E81
:10568000402BF3D90320F1E7013CE4B20F2C1ED8E4
:10569000402BEBD90320E9E7DCB1B3F5806FE5D30C
:1056A0006046E3E71CF0030C03D1082BDED0032097
:1056B000DCE7BCF1030F01D00320D7E75CB1082B76
:1056C000D4D96046D2E70320D0E70320CEE70320F9
:1056D000CCE76046CAE76046C8E74378032B00D0B2
:1056E00070470378023B9A4228BF1A4692B20023C1
:1056F00007E000EB030C9CF802C001F801CB023379
:105700009BB29342F5D300230B70E9E730B583B029
:105710000446057E6B1E0A2B00F2DD80DFE803F0F5
:105720000610354155627D899CA9C000427900F17F
:10573000100100F07CFA02232376284603B030BD26
:105740004179FBF717FF0546012805D0042818D03A
:10575000022816D00125F0E7237CE28A42B113F03B
:10576000800F02D105232376E7E703232376E4E7BE
:1057700013F0800F02D107232376DEE70923237677
:10578000DBE70B2323760125D7E7D0F8C433C381A9
:1057900003798289816800F071FA04232376012558
:1057A000CBE70179FBF7E6FE0546012806D0052880
:1057B00000F09380042804D00125BEE70923237656
:1057C000BBE70B2323760125B7E701250095437935
:1057D0008289816800F03CFAD4F8C433E38106235F
:1057E0002376AAE74179FBF7C5FE0546431E042B45
:1057F00075D8DFE803F0030A740E0600072323764A
:105800009BE70C232376032597E7052323760125C1
:1058100093E70B23237602258FE7037900221146B5
:1058200000F02CFAD4F8C433E38108232376012551
:1058300083E70179FBF79EFE012805D0042807D0F5
:1058400005284ED0012578E70D232376002574E73F
:105850000B232376012570E701250095437900226B
:10586000114600F0F5F9D4F8C433E3810A23237616
:1058700063E74179FBF77EFE012805D0022807D0B7
:10588000042809D0012558E70D232376002554E785
:1058900009232376012550E70B23237601254CE7C6
:1058A000437E0133DBB24376022B03D80125057614
:1058B000857042E7D0F8D4330621984700256576F5
:1058C0006179204600F04BFA2179204600F047FA32
:1058D0002570022531E701252FE703252DE7012556
:1058E0002BE7032529E70B88027813440B80037804
:1058F000184470472DE9F04383B0002900F0B280CE
:1059000005460C460B78092B01D009230B70237830
:1059100085F83833637885F83933A378E17843EA3A
:105920000123B3F5807F28BF4FF48073A5F83A3385
:10593000237985F83C33637985F83D33A37985F87D
:105940003E33E37985F83F33237A85F84033092ADB
:1059500040F28A800923ADF8063000263746012E32
:1059600077D8B5F83A23BDF806309A4271D90DF1CF
:1059700006012046FFF7B7FF04464378042BEED11B
:105980000378092B01D009230370B14605F54E7049
:105990001A2306FB03F30833184421460230FFF7AD
:1059A00017FE4FF0000814E00723237005F54E7131
:1059B00008F101081A2303FB09F303EBC8030833BA
:1059C0001944224604312846FFF715FE07465FFAC0
:1059D00088F8B8F1010F32D81A2303FB095393F862
:1059E000463343452BD9B5F83A23BDF806309A42E1
:1059F00025D90DF106012046FFF775FF04464378CF
:105A0000052BE6D11A2303FB095393F84733012BE7
:105A1000CAD11A2303FB095393F84833023BDBB284
:105A2000012BC1D81A2303FB095393F84933002BE8
:105A3000BCD10378092BB9D009230370B6E71A2328
:105A400003FB095999F84633434512D80136F6B29B
:105A500085E795F83C33022B28BF0223B34204D9D3
:105A6000032702E0022700E00027384603B0BDE824
:105A7000F0830327F9E710B504468078012803D0A6
:105A8000022808D0012005E0A160A281012323762D
:105A90000223A37010BD2046FFF738FE30B1032863
:105AA00004D00228F6D10123A370F3E70123A370E9
:105AB00000232376EEE708B58E4694461946BDF8D6
:105AC00008208378012B02D0FFF7D5FF08BD6EF0C8
:105AD0007F0E80F810E006234374A0F812C00CF487
:105AE0007F4CBCF5407F03D000238382C282EBE76A
:105AF00040F209438382F9E7B1F5007F15D870B50C
:105B000082B005460C4600F58E76009133464FF480
