:020000040800F2
:1000000000000220856B0008250B0008270B000864
:10001000290B00082B0B00082D0B00080000000026
:100020000000000000000000000000002F0B00088E
:10003000310B000800000000330B0008350B0008EE
:10004000D56B0008D56B0008D56B0008D56B000890
:10005000D56B0008D56B0008D56B0008D56B000880
:10006000D56B0008D56B0008D56B0008D56B000870
:10007000D56B0008D56B0008D56B00083D0B000858
:10008000D56B0008D56B0008D56B0008D56B000850
:10009000D56B0008D56B0008D56B0008D56B000840
:1000A000D56B0008D56B0008D56B0008D56B000830
:1000B000D56B0008D56B0008D56B0008D56B000820
:1000C000D56B0008D56B0008D56B0008D56B000810
:1000D000D56B0008D56B00084D0B0008D56B0008E8
:1000E000D56B0008D56B0008D56B0008D56B0008F0
:1000F000D56B0008D56B0008D56B0008D56B0008E0
:10010000D56B0008D56B0008D56B0008D56B0008CF
:10011000D56B0008D56B0008D56B0008D56B0008BF
:10012000D56B0008D56B0008D56B0008D56B0008AF
:10013000D56B0008D56B0008D56B0008D56B00089F
:10014000D56B0008D56B0008D56B00085D0B000867
:10015000D56B0008D56B0008D56B0008D56B00087F
:10016000D56B0008D56B0008D56B0008D56B00086F
:10017000D56B0008D56B0008D56B000800000000A7
:08018000D56B0008D56B0008E7
:10018800024B0146186800F02FB800BF000000209D
:10019800024B0146186800F059B900BF0000002062
:1001A80070B5104E336805460C46B3B12146284653
:1001B80000F0F8F8431C0CD0C41C24F00304A0423F
:1001C80005D0211A284600F0EDF8013001D020466C
:1001D80070BD4FF0FF34204670BD194600F0E2F8BC
:1001E8003060E3E77C0000202DE9F843CD1C25F0C2
:1001F800030508350C2D38BF0C25002D064618DBE5
:10020800A94216D8DFF8DC8000F06EF8D8F8042090
:10021800A2B1144603E0636822467BB11C462368FA
:100228005B1BF8D40B2B1FD89442636854D05360DF
:100238000CE00C2333600020BDE8F88329463046E3
:10024800FFF7AEFF431C044619D00560304600F0A6
:1002580051F804F10B00231D20F00700C21A1CBF3F
:100268001B1AA350BDE8F88361199442256014BF96
:100278005160C8F80410635163684B60E6E7D8F82A
:1002880004701FB33C467F68002FFBD123683946B2
:10029800304604EB030900F085F8814516D1236840
:1002A800ED1A29463046FFF77BFF01300ED0236850
:1002B800D8F804202B442360536883B1A34203D0A9
:1002C8001A465B689C42FBD10023B0E70C233360DD
:1002D800304600F00FF8AEE7C8F80430B6E7C8F8C3
:1002E8000470B3E77C000020014800F0A5B800BF07
:1002F800D4010020014800F0A7B800BFD4010020B5
:10030800830730B547D0541E002A3ED0CAB20346F0
:1003180001E0013C39D303F8012B9D07F9D1032CE7
:100328002CD9CDB205EB05250F2C05EB054535D9A4
:10033800A4F1100222F00F0C03F1100EE6444FEA6C
:10034800121C1A46C2E90055C2E90255103272451C
:10035800F8D10CF1010214F00C0F03EB021204F0B7
:100368000F0C13D0ACF1040323F00303043313443C
:1003780042F8045B9342FBD10CF003042CB1C9B2E0
:100388001C4403F8011BA342FBD130BD644613464D
:10039800002CF4D1F9E703461446C0E71A46A446F0
:1003A800E0E700BF38B5074D0022044608462A603A
:1003B80006F090F8431C00D038BD2B68002BFBD00A
:1003C800236038BDC0010020014B1868704700BF8A
:1003D8000000002070B50F4B0F4DAB42A3EB050694
:1003E80007D0B610002455F8043B01349847A642BC
:1003F800F9D806F03DFD094D094B5E1BAB424FEAAB
:10040800A60606D0002455F8043B01349847A642B6
:10041800F9D870BDFC270C08FC270C08FC270C0831
:1004280000280C08704700BF704700BF704700BF26
:10043800704700BF704700BF704700BF012070477A
:1004480001207047704700BF704700BF002950D097
:1004580038B551F8043C0C1F002BB8BFE41805460A
:10046800FFF742FF274A13682BB1A3420CD9216832
:10047800601883422CD0636028461460BDE8384079
:10048800FFF738BFA3420FD81A465B68002BF9D193
:1004980011685018844217D02CD3636054602846E2
:1004A800BDE83840FFF726BF11685018A04214D0A5
:1004B80020D8216860188342EFD118685B68084427
:1004C800C4E900035460EAE723680B441360E6E7D5
:1004D80018685B6808442060CDE72068014450181C
:1004E80083421160DBD1D3E900040144C2E900145E
:1004F800D5E770470C232B602846BDE83840FFF746
:10050800F9BE00BF8000002053B94AB9002908BFCE
:1005180000281CBF4FF0FF314FF0FF3000F00CB83F
:10052800ADF1080C6DE904CE06F051FBDDF804E0EE
:10053800DDE9022304B07047704700BF10B5054CD1
:10054800237833B9044B13B10448AFF30080012377
:10055800237010BDE101002000000000786E000843
:1005680008B5034B1BB103490348AFF3008008BD2E
:1005780000000000E4010020786E0008074AD2F865
:10058800FC3043F08073C2F8FC30054B00225A60FF
:100598001A6842F001021A60704700BF00ED00E0DF
:1005A800001000E0074B5A68074B1B680749A1FB7E
:1005B80003139B0C03FB00F0024B5B689B1A8342FE
:1005C800FAD37047001000E05800002083DE1B4378
:1005D800024B1B681A225A63704700BFD80A0020D2
:1005E800024B1B6800225A63704700BFD80A0020DC
:1005F80008B5FFF7EDFF42F22830FFF7D3FFFFF70A
:10060800EFFF41F29410FFF7CDFF08BD10B5044687
:10061800FFF7DEFF40F23220FFF7C4FFFFF7E0FFED
:1006280024B140F29760FFF7BDFF10BD40F23220C1
:10063800FFF7B8FFF9E708B5FFF7CAFF40F2322025
:10064800FFF7B0FFFFF7CCFF08BD00F0070001F08F
:10065800030180EA0103C90041EA401149B243EAB3
:100668000100C0B2704738B50546072407E045FACF
:1006780004F000F00100FFF7C9FF013C64B2002C50
:10068800F5DA38BD10B5084B1978084B1878FFF71C
:10069800DCFF0446FFF7ACFF2046FFF7E4FFFFF757
:1006A800CAFFFFF79DFF10BD090200200A020020C3
:1006B80008B50146002201E0013292B28B5C002BA2
:1006C800FAD14FF0FF33024804F0CBFA08BD00BF5F
:1006D800680B002038B503F0D1FA0446204B1B788C
:1006E80013B9204A127892B1072B36D096221E4BA6
:1006F8001B7823B91D4B1B68E31A934206D3FFF7F7
:10070800C1FF1A4B1C60184B00221A7038BD184BD9
:100718001B78E3B1144B1B7823B9144B1B68C31A1D
:10072800772BF3D9FFF7AEFF114D2B78013B2B70D8
:100738000E4B1C600C4B00221A700E48FFF7B8FFD6
:100748002B78002BE2D10C48FFF7B2FFDEE7FFF76A
:1007580047FF054B00221A70D8E74FF49672C6E798
:100768000A020020090200200002002004020020E2
:1007780008020020906E0008A46E000808B5164B09
:100788001B78834210D0144B1870144B197007282B
:100798000FD000B981B1012811D0012801D1032956
:1007A80017D000F061FC08BD0C4B1B788B42EAD1D6
:1007B800F9E700F059FCF6E700F016FCF3E7012929
:1007C80004D00229E9D100F02FFCECE700F01CFC72
:1007D800E9E700F039FCE6E752000020510000206C
:1007E80038B504460D460C4B18700C4B19700C4B61
:1007F80001221A7003F042FA0A4B186024B91DB995
:10080800094B03221A7002E0074B00221A7029468E
:100818002046FFF7B3FF38BD0A0200200902002076
:100828000002002004020020080200202A4B1B7846
:10083800002B50D010B572B6284B1C78E4B2264B6A
:1008480000221A7062B6264B1B78A34216D0132CCE
:100858003DD8DFE804F00A3C3C3C3C3C3C3C3C3C9A
:100868003C3C3C3C3C3C141E283200210846FFF727
:10087800B7FF1B4B1C701B48FFF71AFF10BD002168
:100888000846FFF7ADFF164B1C701748FFF710FF1F
:10089800F4E701210846FFF7A3FF114B1C7013482A
:1008A800FFF706FFEAE702210120FFF799FF0C4B4B
:1008B8001C700F48FFF7FCFEE0E703210120FFF75B
:1008C8008FFF074B1C700B48FFF7F2FED6E70A486C
:1008D800FFF7EEFED2E77047FC010020FD01002083
:1008E80050000020BC6E0008E06E0008FC6E000896
:1008F800186F0008346F0008506F000808B50268C8
:10090800124B9A4200D008BD114B1B786BB9114BA2
:100918001B78AA2B05D001220E490F4804F0FBFBD7
:10092800F1E70B4B01221A70F5E70A4B1B78AA2B4B
:1009380008D00A4A13700A4B01221A70044B00228D
:100948001A70E8E7024B01221A70E4E700440040FD
:10095800FE010020FF010020200B0020FD010020E7
:10096800FC01002008B50268074B9A4200D008BD78
:100978000023064A1370064A1370012205490648E7
:1009880004F0C9FBF3E700BF00440040FE0100206B
:10099800FC010020FF010020200B002072B6FEE7BA
:1009A80008B50023064A1370064A13700122064947
:1009B800064804F0B0FB00B908BDFFF7EFFF00BF21
:1009C800FE010020FC010020FF010020200B002078
:1009D80000B595B03022002108A8FFF791FC00234C
:1009E800039304930593069307930193214A116C8B
:1009F80041F080511164126C02F080520192019A08
:100A080002931D4B1A6842F480421A601B6803F473
:100A180080430293029B012308934FF4A023099378
:100A280002230E934FF480020F92082210924FF483
:100A3800A872119212930723139308A802F002FADE
:100A480098B90F23039302230493002305934FF4CB
:100A5800A05306934FF480530793052103A802F08F
:100A68005BFC20B915B05DF804FBFFF797FFFFF7B3
:100A780095FF00BF003802400070004008B503F041
:100A8800D7F8FFF7A5FF05F049FD06F05DF805F07A
:100A980035FE05F089FE05F045FF05F0B7FF05F0C6
:100AA800CFFF00F007FB4FF47A731122164917485D
:100AB80004F0D7F84FF47A7003F0E6F800F031F953
:100AC800642003F0E1F8FFF759FD0021104803F016
:100AD8007DFE08B1FFF762FFFFF782FD002108469F
:100AE800FFF77EFEFFF75CFF0A48FFF7E1FD0A48C3
:100AF800FFF7DEFD00F0FEFAFFF798FEFFF7EAFDCC
:100B0800052003F0C1F8F5E7C06F0008680B002066
:100B1800D80A00206C6F0008846F0008FEE7FEE723
:100B2800FEE7FEE7FEE770477047704708B503F039
:100B380099F808BD08B5024802F0EAFE08BD00BFF2
:100B4800200A002008B5024804F07AF908BD00BF61
:100B5800200B002008B5024801F006FB08BD00BFC5
:100B6800E405002000B583B0002100910C4B5A6CBD
:100B780042F480425A645A6C02F480420092009A0D
:100B880001911A6C42F080521A641B6C03F0805376
:100B98000193019B072002F0EBFF03B05DF804FB13
:100BA8000038024010B501224FF480510D4802F080
:100BB8007FFD0D4C01221021204602F079FD002214
:100BC8002021204602F074FD642003F05DF8012224
:100BD8002021204602F06CFD4FF4967003F054F883
:100BE80010BD00BF000402400008024010B10A46D0
:100BF800014602B9704708B54FF47A73064803F006
:100C080038FA30B9044B1B689B6813F0800FF9D190
:100C180008BDFFF7C3FEF5E7800A002010B582B0D3
:100C28008DF807000C4C00224FF48051204602F04A
:100C38003FFD01221021094802F03AFD01210DF182
:100C48000700FFF7D3FF01224FF48051204602F03E
:100C58002FFD02B010BD00BF000402400008024092
:100C680010B582B08DF807000C4C00224FF480516B
:100C7800204602F01DFD00221021094802F018FD4F
:100C880001210DF10700FFF7B1FF01224FF4805158
:100C9800204602F00DFD02B010BD00BF0004024066
:100CA8000008024010B582B0030A8DF804308DF8B0
:100CB80005000C4C00224FF48051204602F0F8FC4D
:100CC80001221021084802F0F3FC022101A8FFF7D5
:100CD8008DFF01224FF48051204602F0E9FC02B05A
:100CE80010BD00BF0004024000080240F8B50746E6
:100CF8000D4616461C462A20FFF7B2FF3846FFF776
:100D0800D1FF3046FFF7CEFF2B20FFF7A9FF28467B
:100D1800FFF7C8FF2046FFF7C5FF2C20FFF7A0FF0D
:100D2800F8BD08B5FFF73EFF0120FFF799FF9620B1
:100D380002F0AAFFCB20FFF793FF3920FFF76EFFE1
:100D48002C20FFF76BFF0020FFF768FF3420FFF728
:100D580065FF0220FFF762FFCF20FFF781FF002029
:100D6800FFF75CFFC120FFF759FF3020FFF756FF60
:100D7800E820FFF775FF8520FFF750FF0020FFF7F9
:100D88004DFF7820FFF74AFFEA20FFF769FF0020B0
:100D9800FFF744FF0020FFF741FFED20FFF760FF5A
:100DA8006420FFF73BFF0320FFF738FF1220FFF70F
:100DB80035FF8120FFF732FFF720FFF751FF202092
:100DC800FFF72CFFC020FFF74BFF2320FFF726FF7C
:100DD800C120FFF745FF1020FFF720FFC520FFF7D0
:100DE8003FFF3E20FFF71AFF2820FFF717FFC72015
:100DF800FFF736FF8620FFF711FF3620FFF730FF99
:100E08002820FFF70BFF3A20FFF72AFF5520FFF7AE
:100E180005FFB120FFF724FF0020FFF7FFFE182091
:100E2800FFF7FCFEB620FFF71BFF0820FFF7F6FED2
:100E38008220FFF7F3FE2720FFF7F0FEF220FFF7EE
:100E48000FFF0020FFF7EAFE2620FFF709FF012029
:100E5800FFF7E4FEE020FFF703FF0F20FFF7DEFEB9
:100E68003120FFF7DBFE2B20FFF7D8FE0C20FFF721
:100E7800D5FE0E20FFF7D2FE0820FFF7CFFE4E204A
:100E8800FFF7CCFEF120FFF7C9FE3720FFF7C6FEBB
:100E98000720FFF7C3FE1020FFF7C0FE0320FFF76F
:100EA800BDFE0E20FFF7BAFE0920FFF7B7FE0020AF
:100EB800FFF7B4FEE120FFF7D3FE0020FFF7AEFEF8
:100EC8000E20FFF7ABFE1420FFF7A8FE0320FFF764
:100ED800A5FE1120FFF7A2FE0720FFF79FFE312095
:100EE800FFF79CFEC120FFF799FE4820FFF796FE0A
:100EF8000820FFF793FE0F20FFF790FE0C20FFF766
:100F08008DFE3120FFF78AFE3620FFF787FE0F207F
:100F1800FFF784FE1120FFF7A3FE782002F0B4FE4D
:100F28002920FFF79DFE142002F0AEFE2C20FFF7CB
:100F380097FE08BDF0B5A1B0269E56B117461C46CF
:100F48003AB133B18318B3F5A07F02D80B19F02B4F
:100F580001D921B0F0BD024492B29BB2013B013AE3
:100F68009BB292B2FFF7C2FE04FB07F700224FF4D0
:100F780080511B4802F09CFB01221021194802F005
:100F880097FB00251CE0402420E04B1936F813207D
:100F98004FEA122C00F180036B4403F880CC00F177
:100FA80081036B4403F8802C023080B2013189B28E
:100FB8008C42EAD8610089B26846FFF717FE2544DB
:100FC800BD4206D27C1B402CDDD8A4B200210846C5
:100FD800EEE701224FF48051014802F069FBB8E7BF
:100FE800000402400008024000B583B0054B00939E
:100FF800F0234FF4A07200210846FFF79BFF03B0CF
:101008005DF804FBD4CF090800B583B0054B009305
:10101800F0234FF4A07200210846FFF78BFF03B0BE
:101028005DF804FBD477070800B583B0054B00933F
:10103800F0234FF4A07200210846FFF77BFF03B0AE
:101048005DF804FBD41F050800B583B0054B009379
:10105800F0234FF4A07200210846FFF76BFF03B09E
:101068005DF804FBD4C7020800B583B0054B0093B4
:10107800F0234FF4A07200210846FFF75BFF03B08E
:101088005DF804FBD46F000804290CD0052902D0B0
:10109800022904D07047064B03221A707047044B8C
:1010A80002221A707047024B01221A70704700BF63
:1010B8000B02002008B501220B490C4804F0D6F9B0
:1010C80048B90B49094804F0F0F938B9074804F061
:1010D80031FA30B908BDFFF761FCF2E7FFF75EFCB3
:1010E800F4E7FFF75BFCF5E7911000080C0200201D
:1010F8005C00002008B5024804F026FA08BD00BFCD
:101108000C02002070B588B0002303930493059364
:10111800069307930368B3F1A04F01D008B070BDE0
:10112800002501951A4C236B43F001032363236BBD
:1011380003F001030193019B4FF400730393154ED1
:1011480003A9304602F0BEF94FF4E053039302239B
:101158000493059506950A23079303A9304602F0E0
:10116800B1F9636B43F0800363630295636C43F4E6
:1011780080436364636C03F480430293029B2A46B2
:101188002946432002F006FD432002F013FDC5E77F
:10119800003802400000024008B5D0F8DC0304F033
:1011A8001EFB08BD08B5D0F8DC0304F02CFB08BD15
:1011B80008B5D0F8DC0304F030FB08BD704708B56B
:1011C800D0F8DC0304F014FB08BD08B5D0F8DC0344
:1011D80004F012FB08BD000090F8CC33012B01D0BD
:1011E8000020704710B504460F48C0F8DC43C4F827
:1011F800D0034FF0A0430360082343710123C37158
:101208000023837102224272837200F003F940B90D
:10121800054801F090F80146204604F0DDFA002068
:1012280010BDFFF7BBFBF3E7E405002008B5D0F8D5
:10123800D00301F085F8012804D0022804D020B199
:10124800012002E0012000E0022008BD08B5D0F826
:10125800D00301F06AF808BD0020704708B5D0F83F
:10126800D00301F05BF808BD08B590F8CC33012B2A
:1012780004D0C82002F008FD002008BD084600F090
:1012880067F8F6E7D0F8D033C1EB011003EB800024
:10129800C07D38B1C1EB011103EB810383F83C2019
:1012A80000207047C1EB011103EB810383F83D2057
:1012B800F6E708B502F0E8FC08BD022805D8DFE823
:1012C80000F005040200012070470220704708B5AD
:1012D800D0F8D00300F0F6FFFFF7EFFF08BD08B520
:1012E800D0F8D00301F003F8FFF7E7FF08BD08B511
:1012F800D0F8D00301F00DF8FFF7DFFF08BD10B5F7
:1013080084B0D0F8D003BDF8204002949DF81C406A
:1013180001949DF81840009401F023F8FFF7CDFFE1
:1013280004B010BD10B584B0D0F8D0039DF82440A7
:101338000394BDF820400294079C01949DF818403E
:10134800009400F0AEF8FFF7B8FF04B010BD00003D
:1013580008B5024600B101220121024802F0A8F9AD
:1013680008BD00BF00080240F8B50668346A04F0FA
:101378000F07C4F34343C4F30A14022B00D0F8BD8B
:101388000546002CFBD0C7EB071300EB8303D96A93
:101398000029F4D0C7EB071300EB83039A6B2244B0
:1013A8005B6B9A4207D9C7EB071700EB8705042345
:1013B80085F84C30E3E72246304601F017F9C7EBD1
:1013C800071305EB8303DA6A2244DA629A6B224434
:1013D8009A6306EB4716D6F810251B8DA342CED18B
:1013E8000B4B1340002BCAD0D6F8003523F08043AE
:1013F80043F00043C6F80035C7EB071305EB83033A
:1014080093F83C2082F0010283F83C20B7E700BF44
:101418000000F81F002842D030B583B004460568A4
:1014280090F8D533BBB1032384F8D533B5F1A04F79
:1014380016D0206801F075F8237C8DF80030231D44
:101448000ECB206801F01EF868B1022384F8D5336A
:10145800012003B030BD80F8D433FFF753FEE2E734
:101468000023A371E5E70121206801F0F3F820B11A
:10147800022384F8D5330120EBE7237C8DF8003074
:10148800231D0ECB206801F017F918B9012384F841
:10149800D533DEE7022384F8D5330120D9E70120CC
:1014A800704738B59DF81040BDF81850C1EB011CC5
:1014B80000EB8C0C8CF817208CF8263094B9C1EB13
:1014C800011C00EB8C0C4FF0030E8CF82AE09DF801
:1014D8001CE08CF819E0032B00F2B180DFE803F080
:1014E8000BA84C7AC1EB011C00EB8C0C4FF0020EE0
:1014F8008CF82AE0EFE7012C40F0A180F2B935B969
:10150800C1EB011300EB8303012283F83D20C1EBFB
:10151800011300EB830393F83D303BB9C1EB011392
:1015280000EB8303002283F82A2088E0C1EB011333
:1015380000EB8303022283F82A2080E0C1EB011329
:1015480000EB83039B7E012B79D1C1EB011300EBE8
:10155800830393F83C303BB9C1EB011300EB8303E1
:10156800002283F82A206AE0C1EB011300EB830311
:10157800022283F82A2062E0AAB9C1EB011300EB2A
:10158800830393F83D3033B9C1EB011300EB8303B8
:1015980083F82A2053E0C1EB011300EB83030222F6
:1015A80083F82A204BE0C1EB011300EB830393F887
:1015B8003C303BB9C1EB011300EB8303002283F8F5
:1015C8002A203CE0C1EB011300EB8303022283F8DD
:1015D8002A2034E0AAB9C1EB011300EB830393F886
:1015E8003D3033B9C1EB011300EB830383F82A20A4
:1015F80025E0C1EB011300EB8303022283F82A20C4
:101608001DE0C1EB011300EB830393F83C303BB9B9
:10161800C1EB011300EB8303002283F82A200EE0BC
:10162800C1EB011300EB8303022283F82A2006E0B2
:10163800C1EB011300EB8303002283F82A20C1EBDE
:10164800011300EB8303059ADA625D63002283F8D5
:101658004C209A63597583F84D20C1EB011189001C
:101668001031014482790431006801F047FA38BD2D
:1016780030B583B004460568D5F840340193D5F8F1
:1016880040340093009B23F02E030093019B13F03A
:10169800020F07D0019B13F0010F25D1009B43F0E7
:1016A80002030093019B13F0080F10D0009B43F036
:1016B80008030093019B13F0040F2DD0637A022BCB
:1016C80015D0E379012B22D02046FFF778FD019B46
:1016D80013F0200F03D0009B43F020030093009BDE
:1016E800C5F8403403B030BDFFF75CFDD6E7019B79
:1016F80003F4C023B3F5802F04D00121206801F042
:101708005BF8E1E70221206801F056F8DCE74EF6C5
:101718006022C5F80424D7E72046FFF756FDD6E730
:10172800F8B505460C460668304600F086FF10F00E
:10173800040F21D006EB44130422C3F80825C4EB98
:10174800041305EB8303072283F84D2021462868FC
:1017580001F043F92146286800F06FFF10F4007F7C
:101768006CD02146286801F038F906EB44164FF48E
:101778000073C6F80835F8BD2146286800F05DFFFB
:1017880010F4807F11D006EB44134FF48072C3F835
:101798000825C4EB041305EB8303082283F84D20C6
:1017A8002146286801F019F9D4E72146286800F095
:1017B80044FF10F0080F10D006EB44130822C3F8BA
:1017C8000825C4EB041305EB8303062283F84D2098
:1017D8002146286801F001F9BCE72146286800F095
:1017E8002CFF10F4806F11D006EB44134FF4806285
:1017F800C3F80825C4EB041305EB8303092283F817
:101808004D202146286801F0E8F8A3E7214628681A
:1018180000F013FF10F0800F9CD006EB44138022D9
:10182800C3F80825C4EB041305EB8303072283F8E8
:101838004D202146286801F0D0F88BE7214628681A
:1018480000F0FBFE10F0010F7CD006EB441606F505
:10185800A0672023BB60C4EB041305EB8303DB7E86
:10186800012B1DD0AB794BB1C4EB041305EB8303FB
:101878001A6B3969C1F31201521A9A63C4EB041343
:1018880005EB8303012283F84D2000215964BA60D7
:1018980093F82630032B14D8DFE803F00D250D2527
:1018A800C4EB041305EB83030022DA767B6823F488
:1018B80080337B60D6E72146286801F08EF8102334
:1018C800BB60AB79012B20D0C4EB041305EB830379
:1018D80093F83C30C4EB041405EB840483F0010353
:1018E80084F83C3047E7D6F8003543F00053C6F893
:1018F8000035C4EB041305EB8303012283F84C2065
:1019080021462846FFF75AFCDBE7C4EB041205EB37
:101918008202936B128D1344013BB3FBF2F313F075
:10192800010F3FF428AFC4EB041305EB830393F8CE
:101938003C30C4EB041405EB840483F0010384F801
:101948003C3018E72146286800F077FE10F0200F99
:101958001ED006EB44162023C6F80835C4EB041342
:1019680005EB83039B7E012B7FF405AFC4EB0413C7
:1019780005EB83030122DA76C4EB041305EB83033A
:10198800032283F84D202146286801F026F8F2E664
:101998002146286800F051FE10F0020F00F0228165
:1019A80006EB441606F5A06202239360C4EB041309
:1019B80005EB830393F84D30013B082B1ED801A19A
:1019C80051F823F0F11900087F170008491B000897
:1019D800A11B0008A91A00081B1A0008311A0008E0
:1019E800D11B0008311A0008C4EB041305EB83036C
:1019F800022283F84D20012283F84C20C4EB041303
:101A080005EB830393F84C2021462846FFF7D6FBC5
:101A1800B1E6C4EB041305EB8303022283F84D20DF
:101A2800052283F84C20E9E7C4EB041305EB830394
:101A3800022183F84D10596C0131596402291AD9D1
:101A4800C4EB041305EB8303002159649B7E012B2F
:101A580007D0C4EB041305EB8303042283F84C205E
:101A6800CCE73C2303FB0453D9761977536823F456
:101A780080335360EDE7C4EB041305EB83030222C4
:101A880083F84C2093F826300BB19342B6D1D6F8A0
:101A9800003523F0804343F00043C6F80035ADE736
:101AA800C4EB041305EB8303022183F84D10DB7E9E
:101AB800012BA3D1C4EB041305EB830393F8263061
:101AC800032B17D03C2303FB0453022283F84C203A
:101AD800C4EB041305EB830393F826300BB1022BF8
:101AE8008CD1D6F8003523F0804343F00043C6F884
:101AF800003583E73C2101FB04518B6C01338B6477
:101B0800022B16D90B4600219964D9765B6C022BFF
:101B180004D83C2303FB045301211977536823F4A9
:101B2800803353603C2303FB0453042283F84C2086
:101B3800CEE73C2303FB0453022283F84C20C7E77B
:101B4800C4EB041305EB8303022183F84D10DB7EFD
:101B5800012B7FF453AFC4EB041305EB830383F825
:101B68004C10516841F480315160D16841F0400116
:101B7800D160D16821F02001D16093F8263013B1EB
:101B8800022B7FF43BAFD6F8003523F0804343F0B7
:101B98000043C6F8003531E7C4EB041305EB8303B3
:101BA800022283F84D2083F84C2093F8263013B195
:101BB80093427FF423AFD6F8003523F0804343F0F7
:101BC8000043C6F8003519E7C4EB041305EB83039B
:101BD800022283F84D205A6C01325A64042283F899
:101BE8004C200BE72146286800F027FD10F0400F35
:101BF80018D006EB44134022C3F80825C4EB04139D
:101C080005EB8303052283F84D209B7E2BB9C4EB9B
:101C1800041305EB830300225A642146286800F068
:101C2800DCFEA8E52146286800F007FD10F0100F3B
:101C38003FF4A1ADC4EB041305EB830393F82630FE
:101C4800032B28D00BB1022B18D1C4EB041305EBDE
:101C5800830300225A64AB7933B1C4EB041305EB58
:101C68008303DB7E012B09D13C2303FB04530422AD
:101C780083F84D202146286800F0AFFEC4EB04131A
:101C880005EB8303DB7E012B12D006EB44131022F5
:101C9800C3F808256FE53C2303FB045300225A646C
:101CA800042283F84D202146286800F096FEE5E7D7
:101CB800C4EB041305EB83050023EB7606EB441312
:101CC800D3F8042522F48032C3F80425D3F80C2570
:101CD80042F02002C3F80C25D7E700BF70B50546CF
:101CE8000C460668304600F0A8FC10F0040F10D02F
:101CF80006EB44160423C6F80835C4EB041305EBB9
:101D08008303072283F84D202146286800F065FEEA
:101D180070BD2146286800F090FC10F0200F4AD0D2
:101D280006EB44162023C6F80835C4EB041305EB6C
:101D380083035B7E012B2DD0C4EB041305EB8303D7
:101D48009B7E012BE4D1C4EB041305EB8303DB7EFC
:101D5800002BDDD1C4EB041305EB830393F8263085
:101D6800012B05D0C4EB041305EB83030122DA76BB
:101D78002601C4EB041305EB8303032283F84D20EB
:101D88002146286800F029FE361B05EB860600234D
:101D98007364BDE7C4EB041305EB830300225A7692
:101DA800022283F84C20032283F84D20214628681C
:101DB80000F013FEC0E72146286800F03EFC10F44E
:101DC800007F0AD006EB44164FF40073C6F80835B6
:101DD8002146286800F001FE9AE72146286800F0AD
:101DE8002CFC10F0010F3BD0C4EB041305EB83036C
:101DF80000225A642146286800F01FFC10F0400FAA
:101E08000AD0C4EB041305EB830301225A7606EBD0
:101E180044134022C3F80825C4EB041305EB8303DD
:101E2800DB7E6BB1C4EB041305EB83030022DA7687
:101E380006EB4413D3F8042522F48032C3F80425B2
:101E480006EB44160122C6F80825C4EB041305EB7B
:101E5800830383F84D202146286800F0BEFD57E72C
:101E68002146286800F0E9FB10F0400F1ED0C4EBB3
:101E7800041305EB8303052283F84D209B7E2BB9C1
:101E8800C4EB041305EB830301225A76C4EB041355
:101E980005EB830300225A642146286800F09DFD63
:101EA80006EB44164023C6F8083531E72146286872
:101EB80000F0C3FB10F0080F10D006EB4413082203
:101EC800C3F80825C4EB041305EB8303062283F843
:101ED8004D202146286800F080FD19E72146286832
:101EE80000F0ABFB10F0100F20D0C4EB041305EB8F
:101EF800830300225A64042283F84D205B7E5BB979
:101F0800C4EB041305EB83031B7E2BB9C4EB04134A
:101F180005EB830301225A762146286800F05DFD0F
:101F280006EB44131022C3F80825F1E62146286879
:101F380000F083FB10F0800F38D0AB79F3B1C4EB1D
:101F4800041205EB8202536C01335364022B20D830
:101F58003C2303FB0453022283F84C2006EB441273
:101F6800D2F8003523F0804343F00043C2F800352F
:101F780006EB44138022C3F80825C9E63C2303FB7B
:101F88000453072283F84D202146286800F025FDD8
:101F9800EEE73C2303FB045300225A64042283F82F
:101FA8004C2021462846FFF709F9E1E72146286831
:101FB80000F043FB10F4806F10D03C2303FB045364
:101FC800092283F84D202146286800F006FD06EB1B
:101FD80044134FF48062C3F8082599E6214628681F
:101FE80000F02BFB10F0020F3FF492AE06EB441604
:101FF80006F5A062022393603C2303FB045393F885
:102008004D30013B082B3FF683AE01A151F823F078
:102018003D200008191D0008AB200008C920000851
:10202800F3200008172100082B210008191D0008BB
:102038002B2100083C2303FB0453022283F84D2084
:10204800012283F84C2093F82630023BDBB29342FE
:1020580053D8A97941B93C2303FB045393F83D2095
:1020680082F0010283F83D20012946D13C2303FB7D
:1020780004535B6B002B40D03C2202FB0452128DB0
:102088001344013BB3FBF2F313F0010F35D03C23AB
:1020980003FB045393F83D2082F0010283F83D20AE
:1020A8002BE03C2303FB0453022283F84D20DB7E04
:1020B800012B22D13C2303FB045383F84C201CE062
:1020C8003C2303FB0453022183F84D1083F84C1082
:1020D800DB7E012B11D13C2303FB04530021D9766D
:1020E800536823F48033536007E03C2303FB045315
:1020F800022283F84D2083F84C203C2303FB045331
:1021080093F84C2021462846FFF758F800E63C2370
:1021180003FB0453022283F84D20052283F84C2048
:10212800EBE73C2303FB0453022283F84D205A6C4F
:1021380001325A64022A08D93C2303FB04530022C3
:102148005A64042283F84C20D7E73C2303FB04534A
:10215800022283F84C20D6F8003523F0804343F060
:102168000043C6F80035C8E7F8B5044605682846B0
:1021780000F06CFA012800D0F8BD206800F059FA88
:102188000028F9D0206800F054FA10F4001F03D09A
:1021980023684FF400125A61206800F04AFA10F4DC
:1021A800801F03D023684FF480125A61206800F022
:1021B80040FA10F0806F03D023684FF080625A61B4
:1021C800206800F036FA10F0020F02D023680222CD
:1021D8005A61206800F02DFA10F0005F08D02368DB
:1021E8004FF000525A61D5F8403413F0010F25D052
:1021F800206800F01EFA10F0807F32D1206800F0CD
:1022080018FA10F0080F30D1206800F012FA10F018
:10221800007F31D1206800F00CFA10F0100FABD01D
:102228002268936923F0100393612046FFF79CF816
:102238002268936943F0100393619DE710212846B3
:1022480000F075F9284600F097F9637A022B03D05D
:102258002046FEF7ADFFCBE70121206800F0ACFA7D
:10226800F6E72046FFF704FAC8E72046FEF794FF92
:10227800236808225A61C7E7206800F0A9FB0746CF
:10228800002604E0F1B22046FFF728FD0136637905
:10229800B34212D906F00F0327FA03F313F0010F24
:1022A800F4D005EB4613D3F8003513F4004FE9D00A
:1022B800F1B22046FFF734FAE8E723684FF00072DE
:1022C8005A61A7E790F8D433012B0ED010B5044615
:1022D800012180F8D413006800F0AEFA206800F0FD
:1022E8001AF9002084F8D40310BD0220704790F832
:1022F800D433012B0BD010B50446012380F8D43316
:10230800006800F055FD002084F8D40310BD0220B9
:10231800704708B5006800F070FA08BDC1EB0111FC
:1023280000EB810090F84C007047C1EB011100EB05
:102338008100806B704708B5006800F0ABFA08BDF3
:1023480008B5006800F09BFA08BDC1EB011200EB6C
:10235800820200209076D07682F8250082F8240048
:1023680070472DE9F04F85B01F469DF838A09DF8BD
:102378003C90BDF840B090F8D433012B54D00546BA
:102388000C461646D846012380F8D433C1EB011316
:1023980000EB830300225A761F75597583F826903F
:1023A80006F07F029A75FFF7D0FF16F0800F29D14B
:1023B800C4EB041305EB83030022DA75286800F0E8
:1023C8005EFAB9F1010F24D0C4EB041305EB8303C3
:1023D80083F818A01FFA88F3C4EB041205EB8202F5
:1023E80013850293CDF80490CDF800A03B46324601
:1023F8002146286800F054FA002385F8D43305B044
:10240800BDE8F08FC4EB041305EB83030122DA75F2
:10241800D4E7BAF1010FD7D10028D5D1BBF1BC0F51
:10242800D2D94FF0BC08CFE70220E8E782B00023FA
:102438000193019B01330193019BB3F1706F1CD889
:102448000369002BF5DA0A23019302E0019B013BA3
:102458000193019B002BF9D1036943F00103036148
:10246800019B01330193019BB3F1706F08D8036995
:1024780013F0010FF4D1002000E0032002B07047F0
:102488000320FBE784B010B5044603A880E80E00DB
:102498009DF81130012B21D1A36B23F48033A36362
:1024A800E36823F4840323F04003E360E36823F440
:1024B8004013E3609DF81830012B0AD02046FFF73F
:1024C800B5FF9DF80E30012B1CD0BDE8104004B0BC
:1024D8007047E36843F48013E360EFE7E36843F091
:1024E8004003E3602046FFF7A1FF9DF8153023B9AC
:1024F800A36B43F48033A363E3E7A36B23F4803334
:10250800A363DEE7A36843F00603A360A36843F070
:102518002003A360D9E7836843F0010383600020A8
:102528007047836823F0010383600020704782B0FE
:1025380000230193019B01330193019BB3F1706F59
:1025480015D80369002BF5DA00230193890141F0BE
:1025580020010161019B01330193019BB3F1706F6D
:1025680008D8036913F0200FF4D1002000E00320FD
:1025780002B070470320FBE782B000230193019B60
:1025880001330193019BB3F1706F13D80369002BDA
:10259800F5DA0023019310230361019B01330193B2
:1025A800019BB3F1706F08D8036913F0100FF4D1D1
:1025B800002000E0032002B070470320FBE710B5BD
:1025C8009DF8084084B903334FEA930E4FF0000C8E
:1025D80008E000EB023303F5805351F8044B1C600C
:1025E8000CF1010CF445F4D3002010BD10B584465D
:1025F80008464FEA920E02F00302002305E00CF5AC
:102608008051096840F8041B01337345F7D37AB148
:102618000CF5805CDCF800400021CBB2DB0024FA2A
:1026280003F300F8013B0131013A92B2002AF4D1D8
:1026380010BD426980691040704700EB411000F5F9
:10264800A063D0F80805DB6818407047406900F0BF
:102658000100704738B50546C36823F0C043C3601E
:10266800012913D019BBC36843F08043C360002419
:102678000A2001F009FB0A342846FFF7E7FF08B1F2
:10268800C72CF5D9C82C14D0002038BDC36843F036
:102698000053C36000240A2001F0F6FA0A342846E1
:1026A800FFF7D4FF0128EDD0C72CF4D9EAE70120C1
:1026B800EBE70120E9E7000084B038B5044605A837
:1026C80080E80E000023C4F8003EA36B43F4001317
:1026D800A363A36B23F40023A363A36B23F48023D6
:1026E800A363E36813F0400F11D19DF81730012B55
:1026F80006D0D4F8003423F00403C4F800340CE006
:10270800D4F8003443F00403C4F8003405E0D4F8E6
:10271800003423F00403C4F8003410212046FFF7E6
:1027280006FF054600B101252046FFF725FF00B149
:102738000125002209E004EB42134FF0FF31C3F8F2
:1027480008150021C3F80C1501329DF81530934285
:10275800F1D80023A3614FF0FF336361124B9C4211
:1027680017D08023636203F5C003A3620F4BC4F83C
:1027780000319DF816301BB9A36943F01003A3611B
:10278800A2690B4B1343A3612846BDE8384004B047
:1027980070474FF40073636203F18073A362054BC3
:1027A800C4F80031E5E700BF00000440E000400045
:1027B800080020A30003E00000F5806CD0F8003486
:1027C80023F00303C0F80034D0F8003401F003020A
:1027D8001343C0F80034012907D002290BD141F274
:1027E8007073CCF80430002070474BF68033CCF877
:1027F8000430002070470120704730B583B004468C
:1028080000250195D0F840340193019B23F02E0355
:102818000193019B43F48073C0F84034642001F0B5
:1028280033FA019B23F48073C4F840340A2001F082
:102838002BFA284603B030BD82B000230193D0F8AC
:1028480040340193019B23F02E030193019B13F461
:10285800805F01D101290CD0019B13F4805F05D062
:1028680021B9019B23F48053C0F84034002002B002
:102878007047019B43F48053C0F84034ECE782B0C2
:1028880000230193D0F8403401930198C0F34140EC
:1028980002B0704700F58060806880B27047000021
:1028A8002DE9F84391461C469DF8245000EB41164B
:1028B80006F5A0634FF0FF329A60032D7AD8DFE85F
:1028C80005F0026B021940F29D42DA6019F0800FA0
:1028D80004D13E4A904207D0002712E0DA6842F459
:1028E8008072DA6000270CE0DA6842F06002DA6091
:1028F800002706E040F29D62DA6019F0800F45D1AA
:10290800002700225A60DA6842F00202DA60D0F842
:10291800183401F00F0101228A401343C0F818341B
:10292800836943F00073836119F0800F44D14FF03D
:102938000008FFF7A4FF9DF82030022B3FD00022AB
:10294800A30503F0FE534FEAC92909F4F04943EA05
:102958000903A90401F440210B43BDF82810C1F371
:102968000A010B4343EA0803134343F48013C6F8F0
:102978000035032D01D0012D05D1D6F8003543F0DF
:102988000053C6F800353846BDE8F883DA6842F4E3
:102998008072DA600027B4E740F22522DA6019F085
:1029A800800F01D10027ACE7DA6842F4C072DA6020
:1029B8000027A6E70127A4E74FF40048B9E7022853
:1029C80002D04FF40032BBE70022B9E70000044010
:1029D80000F58060406980B2704770B483B000230E
:1029E800019300EB411101F5A062D1F80035C3F362
:1029F8008143D1F800555468866816F0200F08D036
:102A0800ED0FE40F2CB9002D5AD0012B58D0032B11
:102A180056D01BB3022B21D0D1F8003543F08043A8
:102A2800C1F80035D0F8103413F47F0F4CD1D1F829
:102A3800003523F00043C1F80035D1F8003543F0E4
:102A48000043C1F80035019B01330193019BB3F5A5
:102A58007A7F35D81368002BF5DB31E0D1F80035E3
:102A680043F08043C1F80035836813F0200F21D16B
:102A7800C36A13F47F0F16D1D1F8003523F0004351
:102A8800C1F80035D1F8003543F00043C1F80035EE
:102A9800019B01330193019BB3F57A7F10D813682A
:102AA800002BF5DB0CE0D1F8003543F00043C1F80A
:102AB800003505E0D1F8003543F00043C1F8003592
:102AC800002003B070BC7047D1F8003543F00043D4
:102AD800C1F80035F4E7000000EB4110064AC0F8E1
:102AE8001025D0F8003523F0804343F00043C0F8A8
:102AF80000350020704700BF0000088070B584B022
:102B08004B78A34CA04216D08C79012C2DD00D6A9D
:102B1800002D5ED0B1F814C005EB0C04013CB4FBE9
:102B2800FCF4A4B2B4F5807F54D94FEA0C24CC61EC
:102B38004FF480744EE0012A07D08C88B4F5807F6A
:102B4800E2D11946FFF7C8FF1EE18C7C0CB1022CBC
:102B5800DAD18C79002CD7D100EB4314D4F80C557A
:102B680025F07005C4F80C55CEE7CC781CB18C8ADA
:102B7800CC61012435E08C7C012C05D0012A21D0C0
:102B88000C6ACC6101242CE00C6ABC2C0DD98C8A0F
:102B9800CC610C62CC68013C012C02D90124CC60C8
:102BA8001FE00224CC6001241BE0CC61CC68013C0E
:102BB800012C03D90424CC60012412E00324CC6046
:102BC80001240EE00D6A8C8AA542D9D9CC61012472
:102BD80007E00124CE78002E60D08D8A04FB05F52D
:102BE800CD61CD69C5F3120C6A4D05EAC4444CEABF
:102BF800040C8C7D640704F0C04400EB431303F518
:102C0800A06E4CEA0404CEF8104012B18C69CEF8DC
:102C1800144000F58065AC6814F0010F0CBF4FF04C
:102C2800010C4FF0000CD3F8004524F00054C3F811
:102C38000045D3F8004544EA4C74C3F800458C7944
:102C4800012C2DD00024CEF80440D3F8004503947D
:102C5800039C24F080440394CC78002C7DD0039C02
:102C680044F400440394039C44F000440394039CFC
:102C7800C3F80045002A40F08780CB78002B40F04D
:102C880083800B6A002B7FD0CA79002A7CD18A7C8A
:102C9800032A72D8DFE802F066806680CD61A0E77B
:102CA8004E7C0C7C44EAC61444F00044CEF8044040
:102CB800DEF80C4044F06004CEF80C40CC79012CCE
:102CC80012D08C7C012C1FD0032C1DD08C7C012CA5
:102CD800BBD1CC78002CB8D1CC68013C032CB4D83B
:102CE800DFE804F01F262D34CC78002CE9D1DEF87B
:102CF800044044F48034CEF80440DEF80C4044F03C
:102D08004004CEF80C40DCE7CC79012CDED1CC783D
:102D1800012CDBD1DEF8044044F48034CEF80440C2
:102D2800D4E7DEF8044044F40044CEF804408CE7CD
:102D3800DEF8044044F00E04CEF8044085E7DEF8DF
:102D4800044044F48044CEF804407EE7DEF80440B2
:102D580044F44044CEF8044077E7039C24F400444C
:102D6800039480E70333C26A92B2C3F38F0393429A
:102D780003D9836943F020038361002300930B8CFC
:102D88004A788969FFF71BFC002004B070BD00BFBA
:102D9800000004400000F81F03332A6992B2C3F30D
:102DA8008F039A42E9D2836943F080638361E4E741
:102DB80030B583B0044600230193FFF7B2FB10211E
:102DC8002046FFF7B4FB054600B101252046FFF772
:102DD800D3FB00B1012500220AE004EB4211D1F82F
:102DE800003523F0802343F08043C1F800350132D9
:102DF8000F2AF2D9002100E001310F2916D804EB7F
:102E0800411000F5A062D0F8003523F4004343F0E8
:102E18004043C0F80035019B01330193019BB3F592
:102E28007A7FE9D81368002BF5DBE5E74FF0FF332D
:102E3800C4F8143463612046FFF76DFB284603B0DD
:102E480030BD0000002800F0E08170B582B0044673
:102E5800036813F0010F3BD09F4B9B6803F00C03F2
:102E6800042B2CD09C4B9B6803F00C03082B21D01F
:102E78006368B3F5803F4FD0B3F5A02F52D0964B7F
:102E88001A6822F480321A601A6822F480221A60C2
:102E98006368002B50D000F0F1FE05468E4B1B688E
:102EA80013F4003F14D100F0E9FE401B6428F5D963
:102EB8000320B1E1884B5B6813F4800FD8D0864BB0
:102EC8001B6813F4003F03D06368002B00F09F8158
:102ED800236813F0020F54D07F4B9B6813F00C0F3C
:102EE8003ED07D4B9B6803F00C03082B33D0E3687E
:102EF800002B68D0794B01221A6000F0BFFE05460E
:102F0800754B1B6813F0020F54D100F0B7FE401B3D
:102F18000228F5D903207FE16F4A136843F4803310
:102F28001360B5E76C4B1A6842F480221A601A687D
:102F380042F480321A60ABE700F0A0FE0546664B0B
:102F48001B6813F4003FC3D000F098FE401B6428B0
:102F5800F5D9032060E1604B5B6813F4800FC6D19C
:102F68005D4B1B6813F0020F03D0E368012B40F0A0
:102F78005081594A136823F0F803216943EAC103D1
:102F88001360236813F0080F42D063696BB3534B87
:102F98000122C3F8802E00F071FE05464E4B5B6F90
:102FA80013F0020F34D100F069FE401B0228F5D956
:102FB800032031E1484A136823F0F803216943EA02
:102FC800C1031360DDE7454B00221A6000F056FE8E
:102FD8000546414B1B6813F0020FD2D000F04EFE9D
:102FE800401B0228F5D9032016E13C4B0022C3F808
:102FF800802E00F043FE0546374B5B6F13F0020F3F
:1030080006D000F03BFE401B0228F5D9032003E15F
:10301800236813F0040F77D02F4B1B6C13F0805FDD
:1030280033D1002301932C4B1A6C42F080521A645E
:103038001B6C03F080530193019B0125284B1B68EF
:1030480013F4807F23D0A368012B34D0052B38D00C
:10305800214B1A6F22F001021A671A6F22F004023C
:103068001A67A368002B3DD000F008FE06461A4BED
:103078001B6F13F0020F46D100F000FE801B41F2D7
:1030880088339842F3D90320C6E00025D6E7144ACE
:10309800136843F48073136000F0F0FD0646104B8C
:1030A8001B6813F4807FCED100F0E8FD801B022856
:1030B800F5D90320B0E0084A136F43F00103136702
:1030C800CFE7054B1A6F42F004021A671A6F42F0F5
:1030D80001021A67C5E700BF0038024000004742F6
:1030E8000070004000F0CAFD0646524B1B6F13F0FB
:1030F800020F08D000F0C2FD801B41F288339842CD
:10310800F3D9032088E0EDB9A369002B00F0838090
:10311800484A926802F00C02082A51D0022B17D0B4
:10312800454B00221A6600F0A9FD0446414B1B6876
:1031380013F0007F42D000F0A1FD001B0228F5D952
:10314800032069E03B4A136C23F080531364DBE7E8
:10315800394B00221A6600F091FD0546354B1B6875
:1031680013F0007F06D000F089FD401B0228F5D936
:10317800032051E0E369226A1343626A43EA821337
:10318800A26A5208013A43EA0243E26A43EA026346
:10319800284A5360284B01221A6600F06FFD044646
:1031A800244B1B6813F0007F06D100F067FD001B5D
:1031B8000228F5D903202FE000202DE000202BE085
:1031C800012B2BD01B4B5B6803F48001E269914211
:1031D80026D103F03F02216A8A4223D1616A47F669
:1031E800C0721A40B2EB811F1ED103F44031A26AAB
:1031F8005208013AB1EB024F18D103F07063E26A4A
:10320800B3EB026F14D1002006E0012070470120C3
:1032180002E0012000E0002002B070BD0120FBE7C1
:103228000120F9E70120F7E70120F5E70120F3E79E
:103238000120F1E7003802400000474208B5334B4F
:103248009B6803F00C03042B5BD0082B5BD12F4B3E
:103258005A6802F03F025B6813F4800F2CD02B4BA6
:103268005868C0F388104FEA401CBCEB000C6EEBAA
:103278000E0E4FEA8E1343EA9C634FEA8C11B1EBB2
:103288000C0163EB0E03DB0043EA5173C90011EB39
:10329800000C43F10003590200234FEA4C2041EA95
:1032A800DC51FDF731F9194B5B68C3F30143013376
:1032B8005B00B0FBF3F008BD144B5868C0F38810EE
:1032C8004FEA401CBCEB000C6EEB0E0E4FEA8E135F
:1032D80043EA9C634FEA8C11B1EB0C0163EB0E03DC
:1032E800DB0043EA5173C90011EB000C43F1000302
:1032F800990200234FEA8C2041EA9C51FDF704F91A
:10330800D1E70348D7E70348D5E700BF00380240B4
:1033180000127A000024F400002800F09B8070B5A9
:103328000D4604464F4B1B6803F007038B4208D237
:10333800CBB24C4A1370136803F007038B4240F07A
:103348008B80236813F0020F17D013F0040F04D0FA
:10335800454A936843F4E0539360236813F0080FD9
:1033680004D0414A936843F4604393603E4A9368AB
:1033780023F0F003A1680B439360236813F0010F57
:1033880032D06368012B21D09A1E012A25D9364AEA
:10339800126812F0020F61D033498A6822F00302E2
:1033A80013438B6000F06AFC06462F4B9B6803F0C2
:1033B8000C036268B3EB820F16D000F05FFC801B31
:1033C80041F288339842F0D9032042E0264A126835
:1033D80012F4003FE0D101203BE0234A126812F0CA
:1033E800007FD9D1012034E01E4B1B6803F007038E
:1033F800AB4207D9EAB21B4B1A701B6803F00703EC
:10340800AB422DD1236813F0040F06D0164A9368F7
:1034180023F4E053E1680B439360236813F0080F2B
:1034280007D0114A936823F46043216943EAC10332
:103438009360FFF703FF0C4B9B68C3F303130B4A1E
:10344800D35CD8400A4B18600A4B186800F0CAFBD6
:10345800002070BD012070470120FAE70120F8E73D
:103468000120F6E7003C024000380240E4270C083F
:103478005800002054000020014B1868704700BF16
:103488005800002008B5FFF7F7FF044B9B68C3F30B
:103498008223034AD35CD84008BD00BF00380240ED
:1034A800DC270C0808B5FFF7E7FF044B9B68C3F35C
:1034B8004233034AD35CD84008BD00BF00380240FD
:1034C800DC270C0800230F2B00F2E98070B582B0CE
:1034D80065E085684FEA430E032404FA0EF425EAF2
:1034E8000405CC6804FA0EF42C438460446824EA8A
:1034F80002044A68C2F300129A40224342605CE028
:10350800DC08083450F8242003F00705AD004FF01C
:103518000F0E0EFA05FE22EA0E0E0A69AA4042EACA
:103528000E0240F824205CE0072200E0002202FAA4
:103538000EF22A4302345A4D45F82420594A946819
:103548006FEA0C0224EA0C054E6816F4801F01D0BD
:103558004CEA0405534CA560E46802EA04054E6889
:1035680016F4001F01D04CEA04054E4CE56064686F
:1035780002EA04054E6816F4003F01D04CEA04053F
:10358800484C6560246822404D6815F4803F01D09E
:103598004CEA0402434C226001330F2B7DD80122F0
:1035A8009A400C6804EA020C32EA0404F4D14C682C
:1035B80004F00304013C012C8BD94A6802F0030291
:1035C800032A09D0C4685D000322AA4024EA020441
:1035D8008A68AA402243C2604A6802F00302022AAB
:1035E8008ED004684FEA430E032202FA0EF224EA50
:1035F80002044A6802F0030202FA0EF22243026051
:103608004A6812F4403FC7D000220192264A546CFF
:1036180044F480445464526C02F480420192019A4A
:103628009C08A51C1E4A52F8255003F0030E4FEAC9
:103638008E0E0F2202FA0EF225EA02051B4A90426C
:103648003FF474AF02F5806290421AD002F58062AE
:10365800904218D002F58062904216D002F580623E
:10366800904214D002F58062904212D002F5806236
:10367800904210D002F5806290423FF455AF082284
:1036880055E7012253E7022251E703224FE70422BC
:103698004DE705224BE7062249E702B070BD7047A7
:1036A80000380140003C0140003802400000024060
:1036B8000AB18161704709048161704710B40368D9
:1036C800D9B210390A4AA2FB01421209094CA25C7C
:1036D800C2655F2907D96FF3090304338365806DD9
:1036E8005DF8044B70476FF309038365F7E700BF84
:1036F800ABAAAAAAD4270C08836A826992B9012BBB
:103708000AD0022B02D00BB100207047C36A13F015
:10371800807F28D100207047C36AB3F1C07F24D0CE
:1037280000207047B2F5005F09D0022B25D9032B82
:1037380025D1C36A13F0807F23D100207047032B63
:1037480003D8DFE803F01404140A00207047C36AA2
:1037580013F0807F0DD100207047C36AB3F1C07F9A
:1037680009D00020704701207047012070470120D0
:1037780070470120704701207047012070470020E2
:10378800704701207047000070B5044600F076FAD3
:10379800002C5BD00546022384F83530002384F8DA
:1037A80034302268136823F00103136023681A6811
:1037B80012F0010F0AD000F061FA431B052BF5D96E
:1037C80020236365032084F8350070BD1A682049FA
:1037D80011406268A0680243E0680243206902431E
:1037E80060690243A0690243E0690243206A024318
:1037F8000A43616A04291ED01A602668756925F093
:103808000705636A1D43042B07D1A36A1D43E36AB6
:103818001BB12046FFF770FF90B975612046FFF78E
:103828004DFFE26D3F2393408360002060650123D4
:1038380084F83530C9E7E16A206B01430A43DBE7C6
:1038480040236365012084F83500BEE70120BCE70A
:103858003F8010F070B50446866D00F00FFA94F8BA
:103868003530DBB2022B06D080236365002384F851
:103878003430012070BD05462268136823F0160312
:1038880013602268536923F080035361236CE3B10A
:103898002268136823F0080313602268136823F072
:1038A8000103136023681B6813F0010F11D000F0A7
:1038B800E5F9431B052BF5D920236365032084F81C
:1038C8003500002384F83430D4E7A36C002BDFD113
:1038D800E3E7E26D3F239340B360012384F835307A
:1038E800002084F83400C5E790F83530DBB2022BAD
:1038F80003D08023436501207047052380F83530C5
:103908000268136823F00103136000207047000069
:10391800F0B583B0044600230193724B1D68724BC7
:10392800A3FB0535AD0A876D3E68C26D0823934039
:10393800334210D003681A6812F0040F0BD01A68CB
:1039480022F004021A60C26D08239340BB60436DE5
:1039580043F001034365E26D01239340334209D0EC
:103968002268526912F0800F04D0BB60636D43F087
:1039780002036365E26D04239340334209D0226851
:10398800126812F0020F04D0BB60636D43F00403A9
:103998006365E26D10239340334224D02268126895
:1039A80012F0080F1FD0BB6023681A6812F4802F2A
:1039B8000DD01B6813F4002F04D1236C9BB1204653
:1039C800984710E0A36C73B1204698470BE01A683B
:1039D80012F4807F03D11A6822F008021A60236C5F
:1039E8000BB120469847E26D20239340334255D0CF
:1039F8002268126812F0100F50D0BB6094F835306E
:103A0800DBB2052B0ED023681A6812F4802F33D04E
:103A18001B6813F4002F2AD1636C002B3ED020467C
:103A280098473BE02268136823F016031360226866
:103A3800536923F080035361236CA3B12268136890
:103A480023F008031360E26D3F239340BB6001231A
:103A580084F83530002384F83430236D002B3FD0B0
:103A6800204698473CE0A36C002BE7D1EBE7E36BDB
:103A7800A3B12046984711E01A6812F4807F09D153
:103A88001A6822F010021A60012384F835300023E6
:103A980084F83430E36B0BB120469847636DFBB173
:103AA800636D13F0010F17D0052384F835302268B1
:103AB800136823F001031360019B01330193AB42A8
:103AC80004D823681B6813F0010FF5D1012384F88B
:103AD8003530002384F83430E36C0BB12046984726
:103AE80003B0F0BD58000020B5814E1B002807DB4D
:103AF80000F01F02400901239340024A42F8203097
:103B0800704700BF00E100E0002808DB0901C9B2E6
:103B180000F1604000F5614080F80013704700F044
:103B28000F000901C9B2014B1954704714ED00E0A8
:103B380000B500F00700C0F1070CBCF1040F28BF66
:103B48004FF0040C031D062B0FD9C31E4FF0FF3E88
:103B58000EFA0CF021EA000199400EFA03FE22EA5F
:103B68000E0241EA02005DF804FB0023EEE70000C4
:103B7800074AD36823F4E0631B041B0C000200F41B
:103B8800E060034343F0BF6343F40033D3607047FE
:103B980000ED00E010B50446054BD868C0F30220DC
:103BA800FFF7C6FF01462046FFF7AEFF10BD00BF76
:103BB80000ED00E008B5FFF799FF08BD0138B0F146
:103BC800807F0BD24FF0E0235861054AF02182F83C
:103BD80023100020986107221A617047012070475E
:103BE80000ED00E010B504460E4B1A784FF47A73D6
:103BF800B3FBF2F30C4A1068B0FBF3F0FFF7DEFFFB
:103C080068B90F2C01D901200AE0002221464FF0A3
:103C1800FF30FFF7BFFF054B1C60002000E00120CC
:103C280010BD00BF530000205800002054000020A1
:103C380008B50B4B1A6842F400721A601A6842F40D
:103C480080621A601A6842F480721A600320FFF7D3
:103C58008FFF0020FFF7C6FFFCF784FF002008BD98
:103C6800003C0240034A1168034B1B780B44136065
:103C7800704700BFC409002053000020014B18689A
:103C8800704700BFC409002038B50446FFF7F6FFA7
:103C98000546B4F1FF3F02D0044B1B781C44FFF7E4
:103CA800EDFF401BA042FAD338BD00BF53000020EF
:103CB800002800F0CC8070B5044690F83D30002B09
:103CC80077D0242384F83D302268136823F0010359
:103CD80013602268136843F4004313602268136872
:103CE80023F400431360FFF7CDFB62685A4B9A42F6
:103CF80064D85A4B98428CBF00230123002B40F014
:103D0800A8805749A1FB00318B0C25686A6822F00E
:103D18003F0242EA91426A6021680A6A22F03F0241
:103D280066684D4DAE424FD8013313430B6221688C
:103D3800CA6922F44F4222F0FF026568464B9D4251
:103D48004CD8431E6D00B3FBF5F3013340F6FC700D
:103D5800034278D0C3F30B031A43CA6121680B6886
:103D680023F0C003E269206A024313430B60216811
:103D78008B6823F4034323F0FF032269E0680243BE
:103D880013438B602168CB6823F0FF036269A06945
:103D980002431343CB602268136843F001031360A6
:103DA80000202064202384F83D30206384F83E00FE
:103DB80070BD80F83C3002F0BFFC82E7294B984286
:103DC8008CBF0023012399E74FF4967505FB03F395
:103DD800254DA5FB03539B090133A6E7A668BEB989
:103DE800431E05EB450CB3FBFCF30133C3F30B0394
:103DF800B3FA83F35B0943BBC6B9431E05EB45051C
:103E0800B3FBF5F30133C3F30B0343F40043A3E718
:103E1800431E05EB850C0CEB8C0CB3FBFCF3013358
:103E2800C3F30B03B3FA83F35B09E4E7431E05EB23
:103E3800850505EB8505B3FBF5F30133C3F30B03E8
:103E480043F4404388E7042386E7012384E70120FD
:103E580070470120ACE700BFA08601007F841E00E8
:103E680083DE1B43FF083D00D34D62102DE9F04768
:103E780082B00546884617461E46FFF7FFFE0A9B96
:103E88001B1A03EB0609FFF7F9FE8246284B1B684D
:103E9800C3F3CB3309FB03F301932B689C6838EA1F
:103EA80004040CBF01230023BB423DD0B6F1FF3F01
:103EB800F3D0FFF7E3FEA0EB0A00484503D2019BCD
:103EC80073BB9946E9E72A68536823F0E003536017
:103ED8006B68B3F5827F0BD0AB6AB3F5005F14D083
:103EE800012385F85130002385F8503003201CE069
:103EF800AB68B3F5004F02D0B3F5806FECD12A68F8
:103F0800136823F040031360E6E72A68136823F474
:103F1800005313602A68136843F400531360DFE703
:103F2800019B013B0193B8E7002002B0BDE8F08790
:103F38005800002070B584B004460D46164600921D
:103F48000B4601220221FFF791FFD0B9174B1B68DE
:103F5800174AA2FB03235B0D4FF47A7202FB03F3AB
:103F680003936368B3F5827F11D0039B3BB1039B36
:103F7800013B039323689B6813F0800FF5D104B0CD
:103F880070BD636D43F0200363650320F7E7009677
:103F98002B46002280212046FFF768FF0028EED03C
:103FA800636D43F0200363650320E8E758000020B1
:103FB800819F5E1600285AD010B50446436A33B96B
:103FC8004368B3F5827F05D00023C36102E0002374
:103FD800036143610023A36294F85130002B40D061
:103FE800022384F851302268136823F040031360D9
:103FF800636803F48273A26802F404421343E2681C
:1040080002F400621343226902F002021343626958
:1040180002F001021343A26902F400721343E26939
:1040280002F038021343226A02F080021343A26AA4
:1040380002F40052216813430B60638B03F00403FE
:10404800626A02F01002216813434B602268D36948
:1040580023F40063D36100206065012384F85130A4
:1040680010BD84F85030204602F0C2FBB8E70120AA
:1040780070472DE9F04383B00446894690461D46B3
:10408800FFF7FCFD94F85160F6B2012E40F0CC80A9
:104098000746B9F1000F00F0C880B8F1000F00F032
:1040A800C48094F85030012B00F0C380012384F8B9
:1040B8005030032384F8513000236365C4F83090EE
:1040C800A4F83480A4F83680A363A387E3876364E5
:1040D8002364A368B3F5004F1ED023681A6812F052
:1040E800400F03D11A6842F040021A60E368B3F542
:1040F800006F1CD0636813B1B8F1010F5FD1226B58
:10410800236812781A73236B01332363E38E9BB2FF
:10411800013B9BB2E38652E02268136823F0400318
:1041280013602268136843F480431360D5E763681B
:1041380013B1B8F1010F15D1226B23681288DA6028
:10414800236B02332363E38E9BB2013B9BB2E3866E
:1041580008E0FFF793FDC01BA84202D3B5F1FF3F6B
:1041680015D1A5B1E38E9BB2002B42D023689A6883
:1041780012F0020FEDD0226B1288DA60236B023343
:104188002363E38E9BB2013B9BB2E386EAE70123FC
:1041980084F85130002384F85030032645E0226B20
:1041A80012781A73236B01332363B4F836C01FFAED
:1041B8008CFC0CF1FF3C1FFA8CFCA4F836C0E38E93
:1041C8009BB2B3B123689A6812F0020FE7D1FFF7E8
:1041D80055FDC01BA84202D3B5F1FF3F01D1002D08
:1041E800EDD1012384F85130002384F850300326A0
:1041F8001BE03A4629462046FFF79CFE08B12023DB
:104208006365A36833B901932368DA6801929B68F0
:104218000193019B012384F85130002384F8503026
:10422800636D13B9002600E00226304603B0BDE8EE
:10423800F0830226F9E7000030B4036A026A22F02C
:10424800010202624268846924F0730C0C6844EA33
:104258000C0423F0020C8B6843EA0C03114DA842AE
:1042680003D005F58065A84205D123F00803CD6881
:104278002B4323F004030B4DA84203D005F58065BA
:10428800A84207D122F440724D6945EA020C8A69B6
:1042980042EA0C02426084614A684263036230BCAD
:1042A800704700BF0000014030B4036A026A22F47C
:1042B800807202624268C46924F0730C0C6844EA94
:1042C8000C0523F400738C6843EA0423114CA042C4
:1042D80003D004F58064A04206D123F40063CC68BF
:1042E80043EA042323F480630A4CA04203D004F574
:1042F8008064A04207D122F440524C6942EA041279
:104308008C6942EA04124260C5614A68C26303626A
:1043180030BC70470000014030B4036A026A22F4DE
:10432800805202624468C26922F4E6420D6842EA99
:10433800052223F400538D6843EA0533094DA8424A
:1043480003D005F58065A84204D124F480444D6962
:1043580044EA85144460C2614A680264036230BC5E
:10436800704700BF0000014010B4036A046A24F0DB
:1043780001040462846924F0F00C4CEA021223F070
:104388000A030B43826103625DF8044B704710B463
:10439800036A046A24F010040462846924F4704CEB
:1043A8004CEA023223F0A00343EA0113826103625C
:1043B8005DF8044B7047836823F070030B4343F0A8
:1043C80007038360704770470368324A904212D0EF
:1043D800B0F1804F0FD0A2F57C4290420BD002F58D
:1043E8008062904207D002F58062904203D002F5C5
:1043F8007842904203D123F070034A681343254A58
:1044080090422AD0B0F1804F27D0A2F57C4290424A
:1044180023D002F5806290421FD002F5806290425C
:104428001BD002F57842904217D002F570529042A4
:1044380013D002F5806290420FD002F5806290425C
:104448000BD0A2F59832904207D002F580629042D4
:1044580003D002F58062904203D123F44073CA6806
:10446800134323F080034A6913438A68C2620A68C7
:104478008262084A904203D002F58062904201D1DC
:104488000A690263026842F0040202600122426182
:10449800036070470000014040B310B5044690F82F
:1044A8003D30F3B1022384F83D30214651F8040B26
:1044B800FFF78AFF012384F8463084F83E3084F8F9
:1044C8003F3084F8403084F8413084F8423084F832
:1044D800433084F8443084F8453084F83D30002077
:1044E80010BD80F83C3002F0D7F9DBE701207047B7
:1044F80040B310B5044690F83D30F3B1022384F878
:104508003D30214651F8040BFFF75EFF012384F884
:10451800463084F83E3084F83F3084F8403084F8E0
:10452800413084F8423084F8433084F8443084F8C9
:10453800453084F83D30002010BD80F83C30FFF74E
:1045480042FFDBE70120704730B4036A026A22F0B9
:10455800100202624468826922F4E6420D6842EA67
:10456800052223F020038D6843EA0513114DA84264
:1045780003D005F58065A84206D123F08003CD68F5
:1045880043EA051323F040030A4DA84203D005F57A
:104598008065A84207D124F440644D6944EA850443
:1045A8008D6944EA8504446082614A6882630362D3
:1045B80030BC70470000014038B590F83C30012B02
:1045C80066D004460D46012380F83C300C2A5AD8A0
:1045D800DFE802F0075959591B59595930595959A7
:1045E80044000068FFF728FE2268936943F0080337
:1045F80093612268936923F00403936122689369A5
:1046080029690B43936100203EE00068FFF79CFF97
:104618002268936943F4006393612268936923F4E1
:104628008063936122689369296943EA012393614E
:10463800002029E00068FFF737FE2268D36943F0BD
:104648000803D3612268D36923F00403D361226885
:10465800D36929690B43D361002015E00068FFF78F
:104668005BFE2268D36943F40063D3612268D3698F
:1046780023F48063D3612268D369296943EA01235B
:10468800D361002000E00120002384F83C3038BDCD
:104698000220FCE710B4846824F47F4C42EA032229
:1046A8000A4342EA0C0282605DF8044B704790F8B6
:1046B8003C30012B78D010B50446012380F83C30FB
:1046C800022380F83D300268936823F47F4323F087
:1046D800770393600B68602B4CD023D8402B54D0C1
:1046E80011D8202B03D00AD80BB1102B05D11946AD
:1046F8002068FFF760FE002028E0012026E0302B2C
:10470800F5D0012022E0502B0AD1CA684968006818
:10471800FFF72AFE50212068FFF74DFE002015E024
:10472800012013E0B3F5805F3AD0B3F5005F14D0F1
:10473800702B37D1CB684A6889680068FFF7AAFFF1
:104748002268936843F0770393600020012384F87C
:104758003D30002384F83C3010BDCB684A68896836
:104768000068FFF797FF2268936843F480439360DB
:104778000020EBE7CA6849680068FFF708FE602177
:104788002068FFF718FE0020E0E7CA68496800685B
:10479800FFF7EAFD40212068FFF70DFE0020D5E76E
:1047A8000020D3E70120D1E70220704701F01F0164
:1047B8004FF0010C0CFA01FC036A23EA0C030362B4
:1047C800036A8A40134303627047000010B5044629
:1047D8000846002942D194F83E30DBB2013B18BFAD
:1047E8000123002B6ED1002851D1022384F83E30DA
:1047F800012201462068FFF7D9FF2368334A934214
:1048080003D002F58062934203D15A6C42F400420D
:104818005A6423682D4A934249D0B3F1804F46D059
:10482800A2F57C42934242D002F5806293423ED088
:1048380002F5806293423AD002F57842934236D02C
:1048480002F57052934232D0A2F5943293422ED0A0
:104858001A6842F001021A60002032E0042908D0E8
:1048680008290DD094F84130DBB2013B18BF012371
:10487800B7E794F83F30DBB2013B18BF0123B0E73C
:1048880094F84030DBB2013B18BF0123A9E70428A4
:1048980005D0082807D0022384F84130A8E702236E
:1048A80084F83F30A4E7022384F84030A0E79A68F0
:1048B80002F00702062A07D01A6842F001021A60BD
:1048C800002010BD0120FCE70020FAE700000140AD
:1048D80090F83C20012A3DD010B40346012280F80C
:1048E8003C20022280F83D2002685068946820F03D
:1048F800700C086840EA0C0050601A68164882423A
:104908001AD0B2F1804F17D0A0F57C40824213D064
:1049180000F5806082420FD000F5806082420BD0A3
:1049280000F57840824207D000F57050824203D0EB
:10493800A0F59430824204D124F0800449682143D0
:104948009160012283F83D20002083F83C005DF847
:10495800044B70470220704700000140024690F85F
:104968003C30012B21D0012380F83C30CB6823F464
:1049780040738868034323F480634868034323F43F
:1049880000630868034323F480530869034323F44E
:1049980000534869034323F48043C9690B431168F2
:1049A8004B64002082F83C00704702207047026880
:1049B80002F10C0353E8003F23F490730C3242E8F1
:1049C80000310029F3D1026802F1140353E8003FD3
:1049D80023F00103143242E800310029F3D1036BBC
:1049E800012B05D0202380F8423000230363704751
:1049F800026802F10C0353E8003F23F010030C3265
:104A080042E800310029F3D1ECE790F84130DBB2FD
:104A1800212B01D0022070478368B3F5805F17D03F
:104A2800036A5A1C02621A7803685A60C38C9BB2E4
:104A3800013B9BB2C3844BB90268D36823F080035F
:104A4800D3600268D36843F04003D3600020704706
:104A58000369002BE4D1036A1B880268C3F30803C7
:104A68005360036A02330362E0E7000010B50446AE
:104A78000268136923F44053C1680B4313618368C8
:104A880002691A4343691A43C3691A430168CB6828
:104A980023F4164323F00C031343CB6002685369D5
:104AA80023F4407381690B4353610368314A93428D
:104AB80006D002F58062934202D0FEF7E3FC01E0E3
:104AC800FEF7F0FCE369B3F5004F29D00021031885
:104AD80049411B1841F10001C90041EA5371DB004B
:104AE800181863684FEA83024FEA937341F1000193
:104AF800FBF70AFD204AA2FB00314909642303FBA6
:104B080011031B013233A2FB03235B0903F0F002FC
:104B180002EB011203F00F03216813448B6010BDF0
:104B28000023021843EB0301121841F10001C900E8
:104B380041EA5271D200101841F1000162689218DE
:104B48005B41FBF7E1FC0C4AA2FB003149096423F5
:104B580003FB1103DB003233A2FB03235B095A007A
:104B680002F4F87202EB011203F007032168134400
:104B78008B60D4E7001001401F85EB512DE9F0430D
:104B880083B005460E4617469946DDF828802B68FF
:104B98001C6836EA04040CBF01240024BC4228D156
:104BA800B8F1FF3FF3D0FFF769F8A0EB09004045E3
:104BB80023D8B8F1000F22D02B68DA6812F0040F5E
:104BC800E5D0802EE3D0402EE1D01A6812F0080F0D
:104BD800DDD0002401941A6801925B680193019B5F
:104BE8002846FFF7E4FE08236B6485F8404001205F
:104BF80000E0002003B0BDE8F0830320FAE70320BB
:104C0800F8E760B310B5044690F8413013B3242395
:104C180084F841302268D36823F40053D3602046D7
:104C2800FFF724FF2268136923F490431361226875
:104C3800536923F02A0353612268D36843F400536D
:104C4800D36000206064202384F8413084F8423027
:104C5800606310BD80F8403001F00CFFD7E70120F9
:104C680070472DE9F04182B01E4690F84130DBB222
:104C7800202B56D104460D469046002955D00AB936
:104C880001204FE000234364212380F84130FEF7E0
:104C9800F5FF0746A4F82480A4F82680A368B3F596
:104CA800805F02D04FF0000814E023692BB34FF067
:104CB80000080FE0202384F84130032032E038F860
:104CC800023B2268C3F308035360E28C92B2013AB4
:104CD80092B2E284E38C9BB293B100963B460022E9
:104CE80080212046FFF74AFF0028E3D1002DE6D0B7
:104CF80015F8012B23685A60E7E7A8460025E9E77D
:104D080000963B46002240212046FFF737FF18B99E
:104D1800202384F8413005E0202384F84130032023
:104D280000E0022002B0BDE8F0810120FAE77047F8
:104D380008B50168CA6822F04002CA60202280F8DB
:104D48004120FFF7F4FF002008BD08B5806B002361
:104D5800C385FBF707FE08BD704790F84230DBB209
:104D6800222B69D18368B3F5805F4FD0826AB3F58F
:104D7800805F04D0002B56D10369002B53D1036800
:104D88005B681370836A01338362C38D9BB2013BF6
:104D98009BB2C385002B51D100B583B00268D3689C
:104DA80023F02003D3600268D36823F48073D360B0
:104DB8000268536923F001035361202380F84230CD
:104DC80000234363036B012B33D100230363026881
:104DD80002F10C0353E8003F23F010030C3242E8C1
:104DE80000310029F3D103681A6812F0100F06D0B9
:104DF800002201921A6801925B680193019B818DE0
:104E0800FFF7AAFF002003B05DF804FB0269002A3F
:104E1800ACD1826A03685B68C3F308031380836AB2
:104E280002338362B1E703685B6803F07F031370A2
:104E3800A8E7FBF763FDE5E702207047002070470D
:104E480010B582B0044602681368D068516913F03F
:104E58000F0F09D113F0200F0CD010F0200F09D03C
:104E68002046FFF77AFF16E011F0010115D110F482
:104E7800907F12D1216B012979D013F0800F03D0D4
:104E880010F0800F40F0218113F0400F03D010F094
:104E9800400F40F01E8102B010BD13F0010F06D084
:104EA80010F4807F03D0626C42F00102626413F058
:104EB800040F04D019B1626C42F00202626413F06C
:104EC800020F04D019B1626C42F00402626413F05C
:104ED800080F07D010F0200F00D119B1626C42F012
:104EE80008026264626C002AD5D013F0200F02D049
:104EF80010F0200F29D123685B6903F04003626C2E
:104F080012F0080F00D163B32046FFF750FD236865
:104F18005B6913F0400F20D0226802F1140353E8B4
:104F2800003F23F04003143242E800310029F3D156
:104F3800E36B73B1694A1A65E06BFEF7D5FC00288C
:104F4800A9D0E06B036D9847A5E72046FFF705FF5A
:104F5800D1E72046FBF706FD9DE72046FBF702FD5B
:104F680099E72046FBF7FEFC0023636493E713F000
:104F7800100F82D010F0100F3FF47FAF0023019381
:104F88001368019353680193019B536913F0400F11
:104F98005FD0E26B13685B689BB2002B4AD0A18D8F
:104FA800994247D9E385D369B3F5807F37D0226822
:104FB80002F10C0353E8003F23F480730C3242E8FB
:104FC80000310029F3D1226802F1140353E8003FAD
:104FD80023F00103143242E800310029F3D122689A
:104FE80002F1140353E8003F23F04003143242E86F
:104FF80000310029F3D1202384F8423000232363B1
:10500800226802F10C0353E8003F23F010030C322E
:1050180042E800310029F3D1E06BFEF71BFC0223C4
:105028006363A18DE38D9BB2C91A89B22046FFF74D
:1050380093FE30E7A18D99427FF42DAFD369B3F584
:10504800807F7FF428AF022363632046FFF784FE46
:1050580021E7A18DE38D9BB2C91A89B2E38D9BB27A
:10506800002B3FF418AF00293FF415AF226802F176
:105078000C0353E8003F23F490730C3242E80030ED
:105088000028F3D1226802F1140353E8003F23F00B
:105098000103143242E800300028F3D1202384F8B9
:1050A800423000232363226802F10C0353E8003FD7
:1050B80023F010030C3242E800300028F3D1022319
:1050C80063632046FFF748FEE5E62046FFF79DFCB0
:1050D800E1E62046FFF72CFEDDE600BF534D000851
:1050E80081628285C28500234364222380F842308E
:1050F800036923B10268D36843F48073D3600268FC
:10510800536943F0010353610268D36843F02003F5
:10511800D3600020704708B590F84230DBB2202BEE
:1051280008D149B10AB9012008BD00230363FFF77C
:10513800D7FFF9E70220F7E70120F5E7034AD2F89D
:10514800883043F47003C2F88830704700ED00E0FF
:1051580008B50378DBB20B2B00D008BDD0F87C3340
:10516800002BFAD09B699847F7E738B50446002327
:1051780006E003F1E00204EB8202002151600133F2
:105188000F2BF6D9002304E0E218002182F81C1145
:105198000133B3F5007FF7D300252570657001232F
:1051A800A370C4F8C45323764022A271657684F8AC
:1051B8001C5384F81D3384F81F5384F81E534FF48E
:1051C8008072294604F11C00FBF79AF84FF400722C
:1051D800294604F58E70FBF793F8C4F82653C4F8F3
:1051E8002A53C4F82E53C4F83253A4F836533E2237
:1051F800294604F54E70FBF783F8284638BD70B58C
:1052080084B004464578072D00F22C81DFE815F0BC
:105218000800480069009A00BF00E500FE00170179
:10522800082100F01FFE18B1032821D0012509E14B
:1052380094F82D33A3710125657002930026019619
:1052480094F81D33009394F81C338022217920466A
:1052580000F013FFA3790293019694F81D3300938D
:1052680094F81C3332466179204600F006FFE9E0E5
:1052780094F81E330133DBB284F81E33032B03D9B1
:105288000D2323700125DDE06179204600F01DFF24
:105298002179204600F019FF002323700125D1E071
:1052A800122100F0DFFD10B902236370CAE0032861
:1052B80040F0C88094F81E330133DBB284F81E3303
:1052C800032B02D90D232370BCE06179204600F03E
:1052D800FCFE2179204600F0F8FE0023637023705D
:1052E800B0E0012100F014FE18B1032824D00125F4
:1052F800A8E00220FBF7DDFF012584F81C530323F7
:105308006370A37902930026019694F81D330093E5
:105318002B4680222179204600F0AFFEA379029324
:10532800019694F81D33009394F81C333246617942
:10533800204600F0A2FE85E00D2323700023637051
:1053480001257FE0092100F0A8FD18B90423637046
:10535800012577E0032801D0012573E094F81E3376
:105368000133DBB284F81E33032B03D90D232370DA
:10537800012567E06179204600F0A7FE21792046E3
:1053880000F0A3FE00236370237001255AE0B0F8F3
:105398003A1300F082FD18B905236370012551E026
:1053A800032801D001254DE094F81E330133DBB208
:1053B80084F81E33032B03D90D232370012541E004
:1053C8006179204600F081FE2179204600F07DFEBB
:1053D800002363702370012534E090F8341319B961
:1053E8000623437001252DE0FF2300F58E7200F09F
:1053F8006FFD18B906236370012523E0032801D047
:1054080001251FE00623637001251BE090F8351382
:1054180019B907234370012514E0FF2300F58E72A4
:1054280000F056FD18B90723637001250AE0032828
:1054380001D0012506E007236370012502E090F8FA
:10544800365315B9284604B070BDFF2300F58E7297
:10545800294600F03DFD05460028F3D0032803D077
:105468000125EFE70125EDE70025EBE7D8B170B599
:105478000E46044680F8CC230025C0F87C53C0F8BB
:105488008053FFF772FE84F8235384F8205384F87E
:10549800215384F822530EB1C4F8D4632046FBF795
:1054A8009BFE002070BD022070470A4651B1D0F81B
:1054B80080334BB9591CC0F88013DE3340F82320E1
:1054C80000207047022070470220704790F83C3354
:1054D8008B4203D980F824130020704702207047BC
:1054E80010B5044600200BE04FF01A0C0CFB0E4ED2
:1054F8009EF849C39C451CD0FF2B1AD00130C0B27E
:10550800012815D886464FF01A0C0CFB004C9CF865
:1055180047C38C4501D0FF29F0D14FF01A0C0CFB82
:105528000E4C9CF848C39445DED0FF2AE6D1DBE751
:10553800FF2010BD10B50446FBF7C9FE0121204627
:10554800FBF792FE002010BD30B587B00446022359
:105558008DF8173090F82133DBB2012B11D0237866
:10556800DBB20B2B7CD8DFE813F00F0021004600DC
:1055780012017B007E00EF0093009D00A700C3008E
:10558800090103230370EAE794F82033002B67D05E
:1055980001232370C820FBF78CFE2046FBF7A7FEEB
:1055A800002384F81C33C4F8C83359E094F8233333
:1055B800DBB2012B0FD0D4F8C833B3F57A7F13D9F7
:1055C80094F81F330133DBB284F81F33032B08D957
:1055D8000D23237044E0002384F81F330223237033
:1055E8003EE0002323703BE00A33C4F8C8330A20A6
:1055F800FBF75FFE34E0D4F8D43313B1042120461E
:1056080098476420FBF755FE2046FBF70FFE84F809
:105618001D03052323700021204600F043FD60711F
:105628008021204600F03EFD01462071A3790293B7
:105638000025019594F81D33009394F81C338022BB
:10564800204600F01AFDA3790293019594F81D33C2
:10565800009394F81C332A466179204600F00DFD2A
:10566800002007B030BD2046FFF7C9FD8DF81700B0
:105678009DF81730002BF3D184F8243394F837338E
:10568800012B02D007232370EAE708232370E7E7FA
:10569800D4F8D433002BE3D00121204698470823BF
:1056A8002370DDE794F83D13204600F042FC002803
:1056B800D6D109232370D3E794F83F3313F0200F92
:1056C80002D10A232370CBE70121204600F042FCD7
:1056D8008DF817009DF8173013B90A232370BFE718
:1056E8009DF81730DBB2032BBAD10A232370B7E732
:1056F800D4F88033002BB3D00023C4F87C3373B1C3
:10570800D4F87C33EBB19B6820469847B0B90623A0
:105718002370D4F8D433032120469847A0E703F137
:10572800DE0254F82220107994F84713884202D0F8
:105738000133DBB2E3E7C4F87C23E1E70D232370F0
:105748008EE70D2323708BE7D4F87C339BB11B695C
:10575800204698478DF817009DF8173013B90B238A
:1057680023707DE79DF81730DBB2022B7FF478AF0A
:105778000D23237074E70D23237071E7D4F87C336D
:10578800002B3FF46DAF5B692046984768E700231C
:1057980084F821332046FFF7E8FCD4F87C332BB19A
:1057A800DB68204698470023C4F87C33D4F8D43308
:1057B80013B105212046984794F82233DBB2012B18
:1057C80003D02046FBF783FD4AE7002384F8223301
:1057D8002046FFF7AFFE43E7C0F8C413704708B58B
:1057E800D0F8C4230132C0F8C423FFF7B1FC08BDC8
:1057F800012380F823337047002380F823330123E3
:1058080080F8213370470346012280F820230020C6
:1058180083F8210383F82203704738B5044601232F
:1058280080F82133002580F8205380F82353FBF7B4
:1058380056FD2179204600F048FC6179204600F0A9
:1058480044FC284638BD000003468C46002970D029
:10585800097880F826139CF8011080F827139CF823
:1058680002109CF8030041EA0021A3F828139CF8D1
:10587800041083F82A139CF8051083F82B139CF85E
:10588800061083F82C139CF8071083F82D1393F84F
:105898001D0301282DD9022840D00320082A49D900
:1058A8009CF808209CF8091042EA0122A3F82E234C
:1058B8009CF80A209CF80B1042EA0122A3F8302336
:1058C8009CF80C209CF80D1042EA0122A3F8322320
:1058D8009CF80E2083F834239CF80F2083F8352396
:1058E8009CF8102083F836239CF8112083F837237E
:1058F800704720290BD808290BD30839C9B20E489C
:1059080020FA01F111F0010F03D00020C6E7402969
:105918000BD0082183F82D130020BFE7082906D0F3
:10592800082183F82D130020B8E70020B6E70020EF
:10593800B4E70220704700BF010100010B78037033
:105948004B7843708B788370CB78C3700B79037175
:105958004B7943718B798371CB79C3710B7A03725D
:10596800704710B5864613780B7053784B70937850
:105978008B7092F803C081F803C01379507943EA19
:1059880000238B8094798C715A1E92B2B2F5007FF5
:105998000CD200209EF81D23CAB90CF0030CBCF1F0
:1059A800030F46D8DFE80CF0090D040D0320F1E7DA
:1059B800B3F5007F10D903200EE0402B0CD903204B
:1059C8000AE0013CE4B20F2C06D9032004E0012AC6
:1059D80003D0022A1CD0032010BD0CF0030CBCF12C
:1059E800030F28D8DFE80CF00206020E402BF3D98B
:1059F8000320F1E7013CE4B20F2C1ED8402BEBD971
:105A08000320E9E7DCB1B3F5806FE5D36046E3E74F
:105A18001CF0030C03D1082BDED00320DCE7BCF11B
:105A2800030F01D00320D7E75CB1082BD4D9604617
:105A3800D2E70320D0E70320CEE70320CCE7604677
:105A4800CAE76046C8E74378032B00D0704703785D
:105A5800023B9A4228BF1A4692B2002307E000EBA5
:105A6800030C9CF802C001F801CB02339BB29342AD
:105A7800F5D300230B70E9E730B583B00446057E03
:105A88006B1E0A2B00F2DD80DFE803F006103541BB
:105A980055627D899CA9C000427900F1100100F08F
:105AA8007CFA02232376284603B030BD4179FBF700
:105AB800D5FB0546012805D0042818D0022816D0A1
:105AC8000125F0E7237CE28A42B113F0800F02D16E
